:020000040100F9
:10000000FD62938202400100FD12E39E02FE374131
:10001000000213010100B701000293810100B7152E
:1000200000019385058C371600011306068CB70670
:1000300000029386060039A083A2050023A0560083
:1000400091059106E3EAC5FEB71500019385458C3D
:10005000371600011306468CB70600029386460049
:1000600039A083A2050023A0560091059106E3EA7A
:10007000C5FEB7050002938505003706000213068A
:10008000460021A023A005009105E3EDC5FEB700C1
:100090000001E780C00AB7000001E780C00AB7008E
:1000A0000001E780C01673005010F5BF8280000089
:1000B0000000000000000000000000000000000040
:1000C0006F004000197106C20AC40EC612C816CAD3
:1000D0001ACC1ECE22D026D22AD42ED632D836DA48
:1000E0003ADC3EDEC2C0C6C2CAC4CEC6D2C8D6CA78
:1000F000DACCDECEE2D0E6D2EAD4EED6F2D8F6DA28
:10010000FADCFEDE970000009380E00482909240CB
:100110002241B2414242D2426243F24302549254DB
:100120002255B2554256D2566257F2570648964863
:100130002649B649464AD64A664BF64B065C965C5B
:10014000265DB65D465ED65E665FF65F096173004A
:10015000203001A001A0B70600019386766D5D46B0
:100160002E85B685170300006700A338411106C627
:1001700022C426C297000000E780A011B705000244
:1001800003C6050069EE37540800854423809500B6
:1001900097000000E78080100145B7050600D049B0
:1001A000719AD0C99049719A90C9D049137636C0D6
:1001B00013060620D0C990491376F6C3130606200D
:1001C00090C9D049FD76370705009386F63F758EB6
:1001D000D0C950536D9A50D35053719A50D30320C5
:1001E00007002320070003204700232207000320E5
:1001F0004700232207009049758E90C923AC050063
:100200004C57F9994CD74C4F11664D8E9305000809
:1002100050CF371605002322B4802324B480232630
:100220009480832686C1F19A8506232CD6C0504F30
:100230008566558EB7460F0050CF6167138606243A
:100240009306076A05050100E31EC5FE2328B48056
:1002500036857D15010075FD2322B480E5B7970032
:100260000000E780A0033705000113050570B706FD
:1002700000019386066F370700011307C7729305C5
:10028000B0021306310097000000E7800004737588
:10029000043072057D81828009C5214573200530B7
:1002A00082808280011106CE22CC001005462326D2
:1002B000A4FE2328B4FE231AC4FE1305C4FE97002F
:1002C0000000E78060E9397106DE22DC800023202F
:1002D000A4FC2322B4FC2324C4FC2326D4FC13084E
:1002E00004FCB70800019388E86A130684FCB7068B
:1002F000000193868669B707000193870774094553
:10030000232004FE930584FE232404FF232614FFE8
:100310002328C4FE232AD4FE2328F4FC232AA4FC89
:10032000232CB4FC232EA4FC130504FDBA859700EE
:100330000000E78060F7797106D622D426D24AD031
:100340004ECE52CC56CA5AC85EC662C466C26AC095
:100350000018B289044537060018658E2E8963009F
:1003600006149395340063C70504C14563FFB908BB
:100370008145638F090033063901CA860387060069
:100380008506132707FC13471700BA95E398C6FEA6
:100390000356C50063F5C510814B330BB640139669
:1003A0001400798285469395B40063CEC60659C27F
:1003B000DA8B49A08355E500E1CDB30639019308F6
:1003C000000E1308000F2E86CA87814911A81387D3
:1003D0001700B38737417D16B309F740BA875DCA66
:1003E000638AD70A03870700E35307FE1377F70FE3
:1003F000636717016368070113874700D9BF138735
:100400002700C1BF13873700E9B72A8A4A85CE85FE
:1004100097000000E780400FAA8552850356CA0066
:1004200063FFC50695BF89466316D60013160B01F8
:10043000935B1601814413DAB500832A0500032C6F
:100440004500C16CFD1C33FD9B0133F59401637ABB
:10045000A50103260C0185045685D285029675D523
:1004600001A88326CC005685CA854E86829639C956
:1004700005494A85B250225492540259F249624ABF
:10048000D24A424BB24B224C924C024D4561828083
:1004900081490146918D0356C500E3EFC5EE4C41FD
:1004A0000841DC45CA854E86B25022549254025906
:1004B000F249624AD24A424BB24B224C924C024D14
:1004C00045618287814433057B41C169FD19337BD6
:1004D000350133F5340133396501E37C65F90326D1
:1004E0000C0185045685D285029665D559B7411110
:1004F00006C622C4000854410841DC46B2402244EA
:1005000041018287411106C622C426C200082A86FC
:100510000D057199B307C54063F4F502014581CD1E
:10052000B29583060600050693A606FC93C6160040
:100530003695E318B6FEB2402244924441018280CF
:10054000B386F54093D22600E38A02FCB29793F576
:1005500036006314C500014521A8014503070600C4
:100560000506132707FC134717003A95E318F6FE14
:10057000014689CDF19ABE9603870600FD15132723
:1005800007FC134717003A968506FDF5B7050101EC
:10059000B706FF003295138F15109388F60F114898
:1005A00025A0B3875300B3026E409375330033F632
:1005B0001F0193D68F00B3F61601369693160601E7
:1005C000369641823295B5EDE38702F6168EBE83EC
:1005D0009305000C168363E4B2001303000C93121E
:1005E0002300814FE36F0EFB93F5023FB38EB30000
:1005F0009E879443CC439047D84793C4F6FF998293
:100600009D80C58E93C4F5FF99819D80C58D9344CF
:10061000F6FF19829D80458E9344F7FF19839D80D4
:10062000458FB3F6E601FE96B3F5E5013376E601B4
:10063000B37FE701B295B695C107AE9FE39BD7FBA9
:100640008DB781451376C30F0A06B29313360E0C8D
:100650003306C0403376CE000D8A9316260003A6DB
:10066000030091031347F6FF19821D83598E3376D9
:10067000E601F116B295E5F633F61501A181B3F561
:100680001501B29513960501B295C1812E95B24020
:100690002244924441018280411106C622C40008CE
:1006A000504108415C46B2402244410182874111D9
:1006B00006C622C40008144150412E85B685B240BA
:0C06C0002244410117030000670023C71B
:1006CC007372632F6D61696E2E72735065726970EF
:1006DC00686572616C73416C726561647954616BAD
:1006EC00656E00000000000000000000010000002A
:1006FC005601000163616C6C656420605265737512
:10070C006C743A3A756E77726170282960206F6E3E
:10071C0020616E2060457272602076616C75650098
:10072C00CC0600010B00000030000000210000008E
:10073C003A20000001000000000000003C0700010E
:04074C0002000000A7
:100750001000000000000000017A5200017C01013D
:100760001B0C02001C0000001800000038FBFFFFFB
:100770002200000000420E204481018802420C0841
:10078000000000001C000000380000003AFBFFFFE2
:100790007000000000420E404481018802420C08B3
:1007A0000000000060000000580000008AFBFFFF0E
:1007B000B801000000420E3058810188028903927E
:1007C0000493059406950796089709980A990B9A39
:1007D0000C420C08000A0322010C023058C1C8C99F
:1007E000D2D3D4D5D6D7D8D9DA420E00420B0A5884
:1007F0000C023058C1C8C9D2D3D4D5D6D7D8D9DA8B
:10080000420E00420B00000024000000BC0000006B
:10081000DEFCFFFF1600000000420E10448101883C
:1008200002420C0800460C021044C1C8420E0000EF
:1008300038000000E4000000CCFCFFFF9401000041
:1008400000420E1046810188028903420C08000A0A
:10085000680C021046C1C8C9420E00420B034E018B
:100860000C021046C1C8C9420E000000240000005E
:100870002001000024FEFFFF1600000000420E10C1
:100880004481018802420C0800460C021044C1C891
:10089000420E0000240000004801000012FEFFFF8D
:1008A0001E00000000420E104481018802420C0824
:1008B00000480C021044C1C8420E000000000000B5
:00000001FF
