:020000040100F9
:10000000FD62938202400100FD12E39E02FE374131
:10001000000213010100B701000293810100B7152E
:100020000001938545A137160001130646A1B706C6
:1000300000029386060039A083A2050023A0560083
:1000400091059106E3EAC5FEB7150001938585A1E8
:1000500037160001130686A1B706000293864600F4
:1000600039A083A2050023A0560091059106E3EA7A
:10007000C5FEB7050002938505003706000213068A
:10008000460021A023A005009105E3EDC5FEB700C1
:100090000001E780C00AB7000001E780C00AB7008E
:1000A0000001E780C01673005010F5BF8280000089
:1000B0000000000000000000000000000000000040
:1000C0006F004000197106C20AC40EC612C816CAD3
:1000D0001ACC1ECE22D026D22AD42ED632D836DA48
:1000E0003ADC3EDEC2C0C6C2CAC4CEC6D2C8D6CA78
:1000F000DACCDECEE2D0E6D2EAD4EED6F2D8F6DA28
:10010000FADCFEDE970000009380E00482909240CB
:100110002241B2414242D2426243F24302549254DB
:100120002255B2554256D2566257F2570648964863
:100130002649B649464AD64A664BF64B065C965C5B
:10014000265DB65D465ED65E665FF65F096173004A
:10015000203001A001A0B71600019386B6825D464B
:100160002E85B685170300006700E34D011106CE0A
:1001700022CC26CA4AC84EC697000000E780A026B7
:10018000B705000203C605006315062237490800BB
:100190003714080005469304C9002380C500970062
:1001A0000000E780E024B7050600C8497199C8C976
:1001B0008849719988C9C849137535C01305052048
:1001C000C8C988491375F5C31305052088C9D049E6
:1001D000FD76370505009386F63F758ED0C95051E0
:1001E0006D9A50D15051719A50D1032005002320AF
:1001F000050003204500232205000320450023229B
:1002000005009049758E90C923AC05004C55F999AD
:100210004CD54C4D1166D18D4CCD4C4D0566130718
:10022000000893070004D18D4CCDB715050023AC11
:10023000E47E23AEE47E2326F90003A705C0F5770C
:10024000FD177D8F93070002518F23A0E5C0232661
:10025000F90003A705C0F98E9386064023A0D5C0F8
:100260004C4D93E525004CCD0325C440C1756D8DE3
:10027000930556D04D8D2326A440032504401365D5
:10028000D5002320A4400325C4412A05E35D05FED3
:1002900013088004930850061306C0069306F00660
:1002A0009302C0021303000293037007130E20078A
:1002B000930E4006130F1002A94F3755080013097B
:1002C0000008B7450F009309458093070581938582
:1002D0000524232404430325C4411375050465DD67
:1002E000232414430325C4411375050465DD232429
:1002F000C4420325C4411375050465DD2324C442AB
:100300000325C4411375050465DD2324D442032568
:10031000C4411375050465DD232454420325C441FB
:100320001375050465DD232464420325C441137558
:10033000050465DD232474420325C44113750504B7
:1003400065DD2324D4420325C4411375050465DD0E
:100350002324C4430325C4411375050465DD232408
:10036000C4420325C4411375050465DD2324D44329
:100370000325C4411375050465DD2324E4430325E7
:10038000C4411375050465DD2324F4430325C441EA
:100390001375050465DD03A5447F137705083E85C5
:1003A00011C34E85232025012E857D15010075FD85
:1003B0000DB797000000E780A00337150001130573
:1003C0002584B716000193860687371700011307A7
:1003D00007889305B0021306B10097000000E7807C
:1003E00000047375043072057D81828009C5214542
:1003F0007320053082808280011106CE22CC00104D
:1004000005462326A4FE2328B4FE231AC4FE1305A2
:10041000C4FE97000000E78020D4397106DE22DC9C
:1004200080002320A4FC2322B4FC2324C4FC232624
:10043000D4FC130804FCB718000193882880130625
:1004400084FCB70600019386C67EB7170001938728
:1004500047890945232004FE930584FE232404FFD5
:10046000232614FF2328C4FE232AD4FE2328F4FCC9
:10047000232AA4FC232CB4FC232EA4FC130504FD86
:10048000BA8597000000E78060F7797106D622D41C
:1004900026D24AD04ECE52CC56CA5AC85EC662C484
:1004A00066C26AC00018B289044537060018658E16
:1004B0002E89630006149395340063C70504C14573
:1004C00063FFB9088145638F090033063901CA8685
:1004D000038706008506132707FC13471700BA9504
:1004E000E398C6FE0356C50063F5C510814B330B78
:1004F000B64013961400798285469395B40063CE76
:10050000C60659C2DA8B49A08355E500E1CDB30692
:1005100039019308000E1308000F2E86CA878149FF
:1005200011A813871700B38737417D16B309F74029
:10053000BA875DCA638AD70A03870700E35307FEB9
:100540001377F70F63671701636807011387470085
:10055000D9BF13872700C1BF13873700E9B72A8A9D
:100560004A85CE8597000000E780400FAA85528516
:100570000356CA0063FFC50695BF89466316D600B9
:1005800013160B01935B1601814413DAB500832A1D
:100590000500032C4500C16CFD1C33FD9B0133F5A8
:1005A0009401637AA50103260C0185045685D28542
:1005B000029675D501A88326CC005685CA854E863D
:1005C000829639C905494A85B2502254925402593B
:1005D000F249624AD24A424BB24B224C924C024DF3
:1005E0004561828081490146918D0356C500E3EF44
:1005F000C5EE4C410841DC45CA854E86B2502254B6
:1006000092540259F249624AD24A424BB24B224CAE
:10061000924C024D45618287814433057B41C1691B
:10062000FD19337B350133F5340133396501E37C42
:1006300065F903260C0185045685D285029665D599
:1006400059B7411106C622C4000854410841DC468E
:10065000B240224441018287411106C622C426C20B
:1006600000082A860D057199B307C54063F4F502A9
:10067000014581CDB29583060600050693A606FCCA
:1006800093C616003695E318B6FEB2402244924453
:1006900041018280B386F54093D22600E38A02FCB2
:1006A000B29793F536006314C500014521A80145B2
:1006B000030706000506132707FC134717003A95A2
:1006C000E318F6FE014689CDF19ABE96038706002F
:1006D000FD15132707FC134717003A968506FDF50D
:1006E000B7050101B706FF003295138F15109388E7
:1006F000F60F114825A0B3875300B3026E409375DF
:10070000330033F61F0193D68F00B3F616013696E9
:1007100093160601369641823295B5EDE38702F6CF
:10072000168EBE839305000C168363E4B200130398
:10073000000C93122300814FE36F0EFB93F5023FF1
:10074000B38EB3009E879443CC439047D84793C45D
:10075000F6FF99829D80C58E93C4F5FF99819D8097
:10076000C58D9344F6FF19829D80458E9344F7FF13
:1007700019839D80458FB3F6E601FE96B3F5E5013A
:100780003376E601B37FE701B295B695C107AE9F18
:10079000E39BD7FB8DB781451376C30F0A06B2934F
:1007A00013360E0C3306C0403376CE000D8A9316F6
:1007B000260003A6030091031347F6FF19821D8349
:1007C000598E3376E601F116B295E5F633F615014A
:1007D000A181B3F51501B29513960501B295C181BA
:1007E0002E95B2402244924441018280411106C6B6
:1007F00022C40008504108415C46B24022444101F5
:100800008287411106C622C40008144150412E853A
:10081000B685B2402244410117030000670023C798
:100820007372632F6D61696E2E7273506572697099
:10083000686572616C73416C726561647954616B57
:10084000656E63616C6C65642060526573756C7471
:100850003A3A756E77726170282960206F6E206158
:100860006E2060457272602076616C7565000000D4
:10087000000000000000000001000000560100011F
:10088000200800010B0000003200000021000000E1
:100890003A20000001000000000000009008000164
:0408A0000200000052
:1008A4001000000000000000017A5200017C0101E8
:1008B4001B0C02001C0000001800000038FBFFFFA6
:1008C4002200000000420E204481018802420C08EC
:1008D400000000001C000000380000003AFBFFFF8D
:1008E4007000000000420E404481018802420C085E
:1008F4000000000060000000580000008AFBFFFFB9
:10090400B801000000420E30588101880289039228
:100914000493059406950796089709980A990B9AE3
:100924000C420C08000A0322010C023058C1C8C949
:10093400D2D3D4D5D6D7D8D9DA420E00420B0A582E
:100944000C023058C1C8C9D2D3D4D5D6D7D8D9DA35
:10095400420E00420B00000024000000BC00000016
:10096400DEFCFFFF1600000000420E1044810188E7
:1009740002420C0800460C021044C1C8420E00009A
:1009840038000000E4000000CCFCFFFF94010000EC
:1009940000420E1046810188028903420C08000AB5
:1009A400680C021046C1C8C9420E00420B034E0136
:1009B4000C021046C1C8C9420E0000002400000009
:1009C4002001000024FEFFFF1600000000420E106C
:1009D4004481018802420C0800460C021044C1C83C
:1009E400420E0000240000004801000012FEFFFF38
:1009F4001E00000000420E104481018802420C08CF
:100A040000480C021044C1C8420E0000000000005F
:00000001FF
