:020000040100F9
:10000000FD62938202400100FD12E39E02FE374131
:10001000000213010100B701000293810100B7152E
:1000200000019385C582371600011306C682B70604
:1000300000029386060039A083A2050023A0560083
:1000400091059106E3EAC5FEB71500019385058386
:100050003716000113060683B70600029386460092
:1000600039A083A2050023A0560091059106E3EA7A
:10007000C5FEB7050002938505003706000213068A
:10008000460021A023A005009105E3EDC5FEB700C1
:100090000001E780C00AB7000001E780C00AB7008E
:1000A0000001E780C01673005010F5BF8280000089
:1000B0000000000000000000000000000000000040
:1000C0006F004000197106C20AC40EC612C816CAD3
:1000D0001ACC1ECE22D026D22AD42ED632D836DA48
:1000E0003ADC3EDEC2C0C6C2CAC4CEC6D2C8D6CA78
:1000F000DACCDECEE2D0E6D2EAD4EED6F2D8F6DA28
:10010000FADCFEDE970000009380E00482909240CB
:100110002241B2414242D2426243F24302549254DB
:100120002255B2554256D2566257F2570648964863
:100130002649B649464AD64A664BF64B065C965C5B
:10014000265DB65D465ED65E665FF65F096173004A
:10015000203001A001A0B70600019386F66A5D4633
:100160002E85B6851703000067008336411106C649
:1001700022C497000000E780600FB705000203C6A5
:1001800005005DEA3754080005462380C500970046
:100190000000E780400E370506004C49F1994CC934
:1001A0000C49F1990CC94C4993F535C0938505204C
:1001B0004CC90C4993F5F5C3938505200CC94C49EE
:1001C0007D761306F63FF18D4CC9B7050500D45175
:1001D000ED9AD4D1D451F19AD4D103A0050023A033
:1001E000050003A0450023A2050003A0450023A2AB
:1001F00005001449758E10C9232C0500C85579993E
:10020000C8D5C84D1166518DC8CD130500082322ED
:10021000A4802324A480B7450F00938505242322BE
:10022000A4802E867D16010075FE2320A4802E86D4
:100230007D16010075FEE5B797000000E780A0037A
:10024000370500011305856DB70600019386866C9E
:1002500037070001130747709305B00213067100BA
:1002600097000000E78000047375043072057D81FB
:10027000828009C52145732005308280828001116A
:1002800006CE22CC00102326A4FE2328B4FE05456A
:10029000231AA4FE1305C4FE97000000E780C0EBFC
:1002A000397106DE22DC80002320A4FC2322B4FC6A
:1002B0002324C4FC2326D4FC130504FC2324A4FE1D
:1002C00037050001130565682326A4FE130584FC89
:1002D0002328A4FE3705000113050567232AA4FE81
:1002E00037050001130585712328A4FC0945232A3D
:1002F000A4FC232004FE930584FE232CB4FC232EAF
:10030000A4FC130504FDBA8597000000E78060F7A0
:10031000797106D622D426D24AD04ECE52CC56CAB5
:100320005AC85EC6001814411845B3E7E600328982
:10033000AE89FDCF058B51CB5845338629018145C8
:1003400021C79308000E1308000FCE8409A89387D5
:1003500014008D8C7D17B3859740BE841DC76386BE
:10036000C40683870400E3D407FE93F7F70F63E71F
:10037000170163E8070193874400E1BF93872400D6
:10038000C9BF93873400F1B7CE876380C704038663
:100390000700635606001376F60F1307000E8DC193
:1003A00063FE25013386B90003060600130700FC2F
:1003B0006358E60001466318000001A8E39C25FF8E
:1003C0004E86638409002E89B289BDC24441C1456D
:1003D0006375B9048145630F090033862901CE8610
:1003E00003870600132707FC134717008506BA95F5
:1003F000E398C6FE63FE9502034685019306D6FF89
:1004000093B61600FD16758EB38AB44039C685457D
:100410006310B6045686814A89A02A8A4E85CA8509
:1004200097000000E780200CAA855285E3E695FC42
:100430000C51484DDC45CE854A86B2502254925428
:100440000259F249624AD24A424BB24B4561828715
:1004500013D61A00850A93DA1A00032AC501832BE2
:100460000502032B050193041600FD1489C803A699
:100470000B015285DA8502966DD905452DA883A614
:10048000CB005285CE854A868296AA85054585E5AC
:1004900033095041FD59FD5433059900630A350174
:1004A00003A60B015285DA850296850475D511A045
:1004B000D68433B55401B250225492540259F249B1
:1004C000624AD24A424BB24B45618280411106C614
:1004D00022C400081451484DDC46B2402244410178
:1004E0008287411106C622C400082A860D0571992B
:1004F000B307C54063F3F502014581CDB29583068C
:10050000060093A606FC93C6160005063695E3186A
:10051000B6FEB240224441018280B386F54093D8B2
:100520002600E38B08FCB29793F536006314C500F0
:10053000014521A8014503070600132707FC1347BF
:10054000170005063A95E318F6FE014791CD13F61C
:10055000C6FF3E968306060093A606FC93C61600C9
:100560003697FD150506FDF5B7050101138F15102A
:10057000B705FF009382F50F3A9511481DA0B38788
:100580001301B3086E40937533003376570021830F
:10059000B376570036969316060136964182329509
:1005A000B5EDE38808F6468EBE839305000C4683BE
:1005B00063E4B8001303000C931823000147E360C1
:1005C0000EFD93F5083FB38EB3009E87944393C509
:1005D000F6FF9D819982D043D58DB3F5E501BA959B
:1005E0009346F6FF9D8298471982558E3376E60131
:1005F0009346F7FF9D821983D98ED847B3F6E6015B
:100600003696B2951346F7FF1D821983598E3377BC
:10061000E601C1072E97E39BD7FB95B7814513767B
:10062000C30F0A06B29313360E0C3306C04033765E
:10063000CE000D8A9316260003A6030091031347EC
:10064000F6FF1D831982598E3376E601F116B295B5
:10065000E5F633F65500A181B3F55500B295139632
:100660000501B295C1812E95B2402244410182809C
:10067000411106C622C40008504108415C46B24000
:10068000224441018287411106C622C40008144158
:1006900050412E85B685B240224441011703000027
:0406A000670043C7E5
:1006A4007372632F6D61696E2E7273506572697017
:1006B400686572616C73416C726561647954616BD5
:1006C400656E000000000000000000000100000052
:1006D4005601000163616C6C65642060526573753A
:1006E4006C743A3A756E77726170282960206F6E67
:1006F40020616E2060457272602076616C756500C1
:10070400A40600010B0000003000000021000000DE
:100714003A2000000100000000000000140700015E
:0407240002000000CF
:100728001000000000000000017A5200017C010165
:100738001B0C02001C000000180000003AFBFFFF21
:100748002200000000420E204481018802420C0869
:10075800000000001C000000380000003CFBFFFF08
:100768007000000000420E404481018802420C08DB
:100778000000000028000000580000008CFBFFFF6C
:10078800BC01000000420E305281018802890392A8
:100798000493059406950796089709420C080000EB
:1007A8001C000000840000001CFDFFFF1600000074
:1007B80000420E104481018802420C08000000002B
:1007C8001C000000A400000012FDFFFF8E010000C5
:1007D80000420E104481018802420C08000000000B
:1007E8001C000000C400000080FEFFFF160000008F
:1007F80000420E104481018802420C0800000000EB
:100808001C000000E400000076FEFFFF1E00000050
:1008180000420E104481018802420C0800000000CA
:0408280000000000CC
:00000001FF
