:0200000480007A
:10000000FD62938202400100FD12E39E02FE374131
:10001000000213010100B701000293810100B785BE
:1000200000809385C5A3378600801306C6A3B70654
:1000300000029386060039A083A2050023A0560083
:1000400091059106E3EAC5FEB7850080938505A476
:1000500037860080130606A4B70600029386460082
:1000600039A083A2050023A0560091059106E3EA7A
:10007000C5FEB7050002938505003706000213068A
:10008000460021A023A005009105E3EDC5FEB700C1
:100090000080E780C00AB7000080E780C00AB71080
:1000A0000080E780800873005010F5BF8280000058
:1000B0000000000000000000000000000000000040
:1000C0006F004000197106C20AC40EC612C816CAD3
:1000D0001ACC1ECE22D026D22AD42ED632D836DA48
:1000E0003ADC3EDEC2C0C6C2CAC4CEC6D2C8D6CA78
:1000F000DACCDECEE2D0E6D2EAD4EED6F2D8F6DA28
:10010000FADCFEDE97100000938020F5829092408A
:100110002241B2414242D2426243F24302549254DB
:100120002255B2554256D2566257F2570648964863
:100130002649B649464AD64A664BF64B065C965C5B
:10014000265DB65D465ED65E665FF65F096173004A
:100150002030411106C697200000E780C0D7B2408A
:1001600041018280411106C6B70500020545238082
:10017000A50097300000E780604397300000E780DB
:10018000004397300000E780A04297300000E780EE
:10019000404297300000E780E04197300000E78060
:1001A000804197300000E780204197300000E780D1
:1001B000C04097300000E780604097300000E78043
:1001C000004097300000E780A03F97300000E780B4
:1001D000403F97300000E780E03E97300000E78026
:1001E000803E97300000E780203E97300000E78097
:1001F000C03D97300000E780603D97300000E78009
:10020000003D97300000E780A03C97300000E78079
:10021000403C97300000E780E03B97300000E780EB
:10022000803B97300000E780203B97300000E7805C
:10023000C03A97300000E780603A97300000E780CE
:10024000003A97300000E780A03997300000E7803F
:10025000403997300000E780E03897300000E780B1
:10026000803897300000E780203897300000E78022
:10027000C03797300000E780603797300000E78094
:10028000003797300000E780A03697300000E78005
:10029000403697300000E780E03597300000E78077
:1002A0008035B240410182803715080013050540B2
:1002B0008280397106DE2AC62AC871052AC42ACE70
:1002C0002AD42AD697200000E780C0BB2AC02AD0B3
:1002D0002ACA01452AC297300000E78080DBAA8540
:1002E000024597300000E78040DC924597300000DF
:1002F000E780E0DA2ACC48082C0897200000E78045
:10030000A0B4AA8522458C412ED22AD82EDA2ADC26
:1003100097200000E78080B9F250216182805D71F2
:1003200086C6370505002ACA014509E509A0054525
:1003300001ED49A0D24537660080130686B5114508
:1003400097300000E7800076370505002ACE2AD0D6
:1003500071052AC82AD62ADC2ADE97200000E78009
:1003600060B22AC42AD82AD201452AC69730000092
:10037000E78020D2AA85224597300000E780E0D2AE
:10038000B24597300000E78080D12AD448102C1065
:1003900097200000E78040B7AA8542458C412EDABD
:1003A000AAC0AEC2AAC497200000E78020B0B64021
:1003B0006161828037650080130585B59730000044
:1003C000E780A0735D7186C6370505002ACA01451E
:1003D00009E509A0054501ED49A0D2453766008031
:1003E000130686B6114597300000E780A06B3705ED
:1003F00005002ACE2AD071052AC82AD62ADC2ADE90
:1004000097200000E78000A82AC42AD82AD20145F4
:100410002AC697300000E780C0C7AA8522459730DA
:100420000000E78080C8B24597300000E78020C711
:100430002AD448102C1097100000E78040AEAA85FF
:1004400042458C412EDAAAC0AEC2AAC49720000051
:10045000E780C0A5B64061618280376500801305E2
:1004600085B697300000E7804069411106C6370520
:10047000000203450500058911E909A09700000065
:10048000E78080CE0545A304A10029A00145A3046F
:10049000A10009A003459100B240410182804111B1
:1004A0000145A306A1002307A100A307A10003455E
:1004B000D100A305A1000345E100A304A100034569
:1004C000F1002305A1000345A10022058345910009
:1004D0004D8D8345B100C2054D8D410182800111D2
:1004E00006CE2AC697000000E780A0FBB245231C79
:1004F000A1004181230DA1000345A101230AA10010
:10050000031581012319A1000145230BA100A30BB1
:10051000A10005462380C500A380C5002381C50036
:10052000A381C500034641012383C5000346310171
:10053000A382C500034621012382C500A384A50030
:100540002385A500A385A500130500082386A50023
:100550002145A386A500034561012384A500034529
:100560007101A383A500F24005618280130101C0DF
:10057000232E113E2ADB97300000E78020049730BD
:100580000000E780C00228192ACB232CA13E3705A2
:1005900006002ACD2328A1245105AACCAADB232AB0
:1005A000A12E232CA12E97200000E780A08D2ADC0D
:1005B000AADDAAD701452AD597300000E78060ADB3
:1005C000AA85625597300000E78020AEAA55973083
:1005D0000000E780C0ACAAD9E8118C199720000070
:1005E000E7806096AA8566458C41AEDF2326A13A56
:1005F0002328B13A232AA13A97200000E780008BF4
:10060000DA456A45232AB13E2324A12641052AC999
:100610002320A1122322A12E2324A12E9720000003
:10062000E7804086AA852A552EDE2322B112232C8C
:10063000B11097300000E780C0A5AA8572559730A9
:100640000000E78080A6AA5597300000E78020A52B
:10065000232EA110280A6C0A97200000E780A0A092
:10066000AA854A458C412324B112232AA138232C80
:10067000B138232EA13897200000E78020836645FB
:10068000DA466A46DA552328D13E2326C124B1052D
:10069000AEC22328A11C232AB11C2322A12A232471
:1006A000A12A97100000E780E07DAA852A55AEC0F8
:1006B000232CB11C2324B11C97300000E780609DDF
:1006C000AA85064597300000E780209EAA559730FE
:1006D0000000E780C09CAA8516452326B11CAC0308
:1006E000F00397200000E78000AAAA8566458C41A8
:1006F000232EB11C232AA132232CB132232EA13266
:1007000097100000E780807A4A45DA466A46DA5553
:100710002326D13E2322C126B505AEC62324A1102F
:100720002326B1102326A12E2328A12E97100000E6
:10073000E7804075AA852A55AEC42328B11023202E
:10074000B11097300000E780C094AA852645973005
:100750000000E7808095AA5597300000E78020943C
:10076000AA8536452322B1100C02500297200000C2
:10077000E78060AAAA854A458C41232AB11023202C
:10078000A13A2322B13A2324A13A97100000E7802E
:10079000E0716645DA466A46DA552324D13E2324C1
:1007A000C12413864500B2D09505AECA232CA120E2
:1007B000232EB1202326A1282328A128971000004A
:1007C000E780406CAA852A55AEC82320B122232891
:1007D000B12097300000E780C08BAA85464597304E
:1007E0000000E780808CAA5597300000E780208BBE
:1007F000AA855645232AB1200C0C500C97200000E6
:10080000E78060AAAA8566458C412322B12223286D
:10081000A130232AB130232CA13097100000E780AB
:10082000E06886551305910B2ACF2320A1283705B0
:1008300005002AD1AAC313054502AAD6232CA11A62
:10084000232EB11A2326A12A2328A12A97100000BB
:10085000E7804063AA852A55AECE2320B11C232809
:10086000B11A97300000E780C082AA85764597309C
:100870000000E7808083AA5597300000E78020823F
:10088000AA850655232AB11A0C1B501B972000007D
:10089000E78020C2AA8536558C412322B11C232033
:1008A000A1342322B1342324A13497100000E7801F
:1008B000E05F3655FA460A56DA55232ED126B2C1E4
:1008C0009905AED42320A1202322B120232AA128D8
:1008D000232CA12897100000E780C05AAA852A552A
:1008E000AED22324B120232CB11E97200000E78034
:1008F000407AAA85165597200000E780007BAA550C
:1009000097200000E780A079AA852655232EB11EE6
:10091000AC1BF01B97200000E78080CDAA853655E0
:100920008C412326B120232EA1302320B132232253
:10093000A13297100000E78060577A460A55DA55D1
:10094000232CC126AAC5A505AEDA2324A118232687
:10095000B118232EA12A2320A12C97100000E78094
:100960006052AA852A55AED82328B1182320B11881
:1009700097200000E780E071AA8546559720000087
:10098000E780A072AA5597200000E7804071AA85F1
:1009900056552322B1180C03500397200000E7801E
:1009A000C0F0AA850A558C41232AB118232CA13402
:1009B000232EB1342320A13697100000E780004F8A
:1009C0007A460A55DA55232AC126AAC9A9052EC195
:1009D00011052AC3232AA112232CB112232EA12CE4
:1009E0002320A12E97100000E780C049AA852A5530
:1009F000AEDC232EB1122326B11297200000E7802F
:100A00004069AA85665597200000E780006AAA55CC
:100A100097200000E780A068AA850A452328B11224
:100A20006C12101A97200000E78000EAAA851A4588
:100A30008C412320B1142324A1382326B138232844
:100A4000A13897100000E78060468A451A45FA46AB
:100A50000A562328D126B2C72328A122232AB1224D
:100A60002322A1282324A12897100000E780804199
:100A7000AA852A55AEDE232CB1222324B122972049
:100A80000000E7800061AA85765597200000E78086
:100A9000C061AA5597200000E7806060AA850A45DA
:100AA0002326B1222C14701497200000E780A0E3C5
:100AB000AA851A458C41232EB1222322A13023245A
:100AC000B1302326A13097100000E780203E4A4530
:100AD000DA466A46DA552322D13E2320C126A105F3
:100AE0002EC72320A11A2322B11A232AA12A232C9C
:100AF000A12A97100000E780E038AA852A552EC564
:100B00002324B11A232CB11897200000E7806058E5
:100B1000AA852A4597200000E7802059AA559720EA
:100B20000000E780C057AA853A45232EB1182C0B48
:100B3000700B97200000E780E0DCAA854A458C41D5
:100B40002326B11A2326A1342328B134232AA13421
:100B500097100000E78080355A466A45AA55232041
:100B6000C13E232AA1246105AACB2322A13C232430
:100B7000B13C2326A13C97100000E78020337A4641
:100B80000A55DA552326C1262ADF9D052ED71305DF
:100B9000C5022AD92324A11E2326B11E232EA12853
:100BA0002320A12A97100000E780C02DAA852A558E
:100BB0002ED32328B11E2320B11E97200000E780EA
:100BC000404DAA851A5597200000E780004EAA558F
:100BD00097200000E780A04CAA853A552322B11E39
:100BE0008C13D01397200000E78080F2AA854A5525
:100BF0008C41232AB11E2324A1322326B13223287B
:100C0000A13297100000E780602A5A55034515006D
:100C1000058959E109A02819232EA13C37050600B2
:100C20002322A12451052ADA2320A1162326A12C50
:100C30002328A12C97100000E780C0242AD6232265
:100C4000A116232CA11401452AD897200000E78083
:100C50004044AA85325597200000E7800045C255E0
:100C600097200000E780A043232EA114A80AEC0AD5
:100C700097200000E78080FDAA8552558C412324EF
:100C8000B1162328A136232AB136232CA13697107A
:100C90000000E780A02109A05A55034505000589F9
:100CA00035ED09A02819232CA13C37050600232087
:100CB000A12451052AD4AAD1232EA12E2320A1306C
:100CC00097100000E780001C2AD0AAD3AACD0145C6
:100CD0002AD297200000E780C03BAA8502559720C2
:100CE0000000E780803C925597200000E780203B81
:100CF000AACFA809EC0997200000E780A0FEAA85EA
:100D000022558C41AED5232CA13A232EB13A232073
:100D1000A13C97100000E780601909A05A550345CF
:100D20003500058959E109A02819232AA13C370576
:100D30000600232EA12441052ACE232AA116232210
:100D4000A12C2324A12C97100000E780A0132ACA0D
:100D5000232CA1162326A11601452ACC972000009A
:100D6000E7802033AA85524597200000E780E033D2
:100D7000E24597200000E78080322328A116E81280
:100D80008C1A97200000E78040FFAA8572458C41AD
:100D9000232EB1162322A1362324B1362326A136D1
:100DA00097100000E780801009A05A5503452500E0
:100DB000058959E109A028192328A13C3705060017
:100DC000232CA12441052AC82326A114232AA12CBF
:100DD000232CA12C97100000E780C00A2AC42328E6
:100DE000A1142322A11401452AC697200000E78000
:100DF000402AAA85224597200000E780002BB245B3
:100E000097200000E780A0292324A114C802AC0287
:100E100097200000E780E0FFAA8542458C41232A05
:100E2000B114232EA1362320B1382322A1389710E4
:100E30000000E780A00709A08320C13F1301014003
:100E40008280011106CE2EC22AC42AC82ECA0345AA
:100E5000050095456310B50209A01245B7650080ED
:100E6000938585B7294697300000E780C073A307B4
:100E7000A10019A8924522452ACC97000000E780DE
:100E80008001A307A10009A00345F100F24005611C
:100E90008280011106CE2EC22ACA2ECC034505003F
:100EA0002AC422450A05B7650080938545B82E956A
:100EB00008410285000037650080130585B92AC600
:100EC0001D452AC889A0376500801305F5B92AC6D3
:100ED0002D452AC80DA8376500801305A5BA2AC676
:100EE00019452AC80DA037650080130505BB2AC621
:100EF00015452AC809A837650080130555BB2AC6C1
:100F000015452AC809A01245B2454246973000004F
:100F1000E7806069F24005618280797106D62AC84F
:100F20002ECA2ECC2ECE3945A301A1022ED22304E7
:100F3000A10212552AC4834581020545972000006D
:100F4000E780E019AA85224597200000E780A016D7
:100F50001255B25045618280011106CE2AC2130596
:100F6000E1002AC497F0FFFFE780A0571245A24591
:100F7000394697500000E78020A1F2400561828049
:100F8000011106CE2AC297F0FFFFE780C01CA3051F
:100F9000A1001305B10097200000E780600E5DE11D
:100FA00009A08345B10013F51500A30DB10011E9A7
:100FB00009A037650080130505C497300000E7805D
:100FC000A09D12450346C5008345D500A205D18DDD
:100FD000231CB1000346850083459500A2054D8E74
:100FE0008345A500939605018345B500E205D58D9F
:100FF000D18D2ECA0346450083455500A2054D8E6E
:10100000834565009396050183457500E205D58DFE
:10101000D18D2EC80346050083451500A205D18D4C
:10102000034625004206034535006205518D4D8D6E
:101030002AC6680097F0FFFFE7808053014523052B
:10104000A10029A005452305A10009A00345A10091
:10105000F2400561828009A001A041112AC609A0C1
:1010600001A0411106C62EC0AA8502452EC22AC47F
:10107000B7650080938505C55D4697300000E78021
:101080008052B24041018280757106C7130561022A
:101090002AD097000000E78060EC0255970000001E
:1010A000E78040EEA300A1040DC509A037650080CC
:1010B0001305C5BCB76600809386C6BB3767008042
:1010C000130787C69305B002900097300000E780B1
:1010D00020A697F0FFFFE780202F97F0FFFFE78023
:1010E000402497000000E780401A97000000E78046
:1010F000202D97000000E780A04A97000000E780BD
:10110000606E97100000E78000A809A01305510346
:101110009305200497100000E78040A72301A10455
:10112000034521049945630BB50209A00345210439
:10113000A301A104376500801305C5BCB766008014
:10114000938686BF37670080130787C79305B00271
:101150001306310497300000E780809D4818AAC22A
:10116000AAC497000000E7808066AA852ECCAA85D5
:101170000D892ECE09E509A0624505E519A8F245BD
:1011800037660080130646C1114597300000E7809E
:10119000609137650080130545C197300000E780F6
:1011A000C0956245AACC41052AC6AAC801452AC4F1
:1011B00097200000E780E0EDAA85224597200000F7
:1011C000E780A0EEA24597200000E78040EDAAC688
:1011D000E80097000000E780005BAA8532458C415B
:1011E000AECAAACEAED0AAD297100000E78000CC3B
:1011F0004818AAD4AAD697000000E780405DAA85C7
:101200002EC8AA850D892ECA09E509A0424505E523
:1012100019A8D24537660080130646C2114597309B
:101220000000E780208837650080130545C29730AD
:101230000000E780808C4245AADE11052AC2AADAA6
:1012400001452AC097200000E780A0E4AA85024556
:1012500097200000E78060E5824597200000E78046
:1012600000E4AAD8881897000000E7800054AA85F7
:1012700012458C41AEDC2AC12EC32AC5971000004E
:10128000E780C0C261B5597186D61305E102AAC6CE
:1012900097000000E780A053AA852ED2AA852ED4FD
:1012A0000D8909E509A0125505E519A8A25537666B
:1012B0000080130686D1114597200000E780807ECC
:1012C00037650080130585D197300000E780E08204
:1012D0001255AACE11052ACCAACA01452ACA9720BE
:1012E0000000E78000DBAA85524597200000E780D8
:1012F000C0DBD24597200000E78060DAAAC88808E2
:1013000097000000E7804049AA8562458C41AECC39
:10131000AAD0AED2AAD497100000E78020B99700D7
:101320000000E780C04AAA852ECEAA852ED00D895E
:1013300009E509A0724501ED95A882553766008040
:101340001306C6C9114597200000E780A0757245B5
:101350002ADE21052AC82ADA01452AC6972000007C
:10136000E78020D3AA8541657D1597200000E7809E
:10137000C0D3B24597200000E78060D22AD8081871
:1013800097200000E780C0D8AA8542458C412EDC1A
:10139000AAC0AEC2AAC497100000E78020B197008F
:1013A0000000E780003EB6506561828037650080AE
:1013B0001305C5C997200000E7802074757106C722
:1013C00097000000E780803FAA852ED4AA852ED6FC
:1013D0000D8909E509A0225501ED85A8B2553766AA
:1013E00000801306C6CA114597200000E780806B75
:1013F0002255AAD431052ACEAAC201452AD0972067
:101400000000E78000C9AA8541657D15972000008E
:10141000E780A0C9825597200000E78040C8AAC095
:10142000880097200000E780C0CFAA8572458C41D4
:10143000AEC42AC12EC32AC597100000E78000A7BA
:101440000255B1452ED215E109A837650080130574
:10145000C5CA97200000E780406A12551375F50F42
:1014600093050002636BB5001DA03765008013056E
:10147000C5CB97400000E78080F492550D453315A9
:10148000B5002AD831452ACC014515E109A83765B0
:1014900000801305C5CC97400000E78000F9624545
:1014A0001375F50F93050002636BB50039A8376516
:1014B00000801305C5CD97400000E78040F0E2456D
:1014C00005453315B5002ADA09A8376500801305EC
:1014D000C5CE97400000E78040F53715050013059D
:1014E00005C02ACA014509E509A0054501ED41A845
:1014F000D245376600801306C6CF114597200000FD
:10150000E780405A37150500130505C02AC82ADEB2
:10151000AACA0C182EC6AECC4C182EC4AECEAAD673
:10152000AAD897100000E780E0952AC0AAD0AAC6E2
:1015300001452AC297200000E780A0B5AA85024590
:1015400097200000E78060B6924597200000E78072
:1015500000B5A2452A863245B2C8F000940897200B
:101560000000E78020C1AA8542458C41AED2AADAAC
:10157000AEDCAADE97100000E780409309A837652B
:1015800000801305C5CF97200000E7800057970023
:101590000000E780E01EBA4049618280757106C78D
:1015A00097000000E7808021AA852ED4AA852ED638
:1015B0000D8909E509A0225501ED85A8B2553766C8
:1015C00000801306C6CA114597200000E780804DB1
:1015D0002255AAD431052ACEAAC201452AD0972085
:1015E0000000E78000ABAA8541657D1597200000CB
:1015F000E780A0AB825597200000E78040AAAAC0F0
:10160000880097200000E780E0B2AA8572458C41EF
:10161000AEC42AC12EC32AC597100000E7800089F6
:101620000255A9452ED215E109A83765008013059A
:10163000C5CA97200000E780404C12551375F50F7E
:1016400093050002636BB5001DA03765008013058C
:10165000C5CB97400000E78080D692550D453315E5
:10166000B5002AD829452ACC014515E109A83765D6
:1016700000801305C5CC97400000E78000DB624581
:101680001375F50F93050002636BB50039A8376534
:1016900000801305C5CD97400000E78040D2E245A9
:1016A00005453315B5002ADA09A83765008013050A
:1016B000C5CE97400000E78040D7371505001305D9
:1016C00005C02ACA014509E509A0054501ED41A863
:1016D000D245376600801306C6CF1145972000001B
:1016E000E780403C37150500130505C02AC82ADEEF
:1016F000AACA0C182EC6AECC4C182EC4AECEAAD692
:10170000AAD897000000E780E0772AC0AAD0AAC62E
:1017100001452AC297200000E780A097AA850245CC
:1017200097200000E7806098924597200000E780AE
:101730000097A2452A863245B2C8F0009408972047
:101740000000E78040A0AA8542458C41AED2AADACB
:10175000AEDCAADE97000000E780407509A8376577
:1017600000801305C5CF97200000E780003997005F
:101770000000E7802001BA40496182808280828037
:10178000828041112AC22AC4930500082EC60CC1CA
:101790004101828041112AC22AC4930500082EC645
:1017A0000CC14101828041112AC22AC4930500085C
:1017B0002EC60CC141018280411109A037450800A5
:1017C0002AC609A0324541018280411109A037553E
:1017D0000800130505802AC609A032454101828010
:1017E000317106DF370505002AD0014509E509A05A
:1017F000054501EDFDA8825537660080130686D3A6
:10180000114597200000E780E029370505002AD41C
:10181000225597F0FFFFE78000AA130571022AC83E
:101820002ADD37150800930505402ECEAED81305E6
:10183000C5402AC6AAC22AC52AC797000000E78069
:1018400060642AC4AAC42ADE01452ACC972000007D
:10185000E7802084AA85224597200000E780E08465
:10186000E24597200000E7808083AAC068188C00BA
:1018700097000000E780000EAA8532458C41AEC675
:101880002AD32ED52AD797000000E7802062C245D0
:1018900072452EDBAADAAACC2AC12AC3970000001F
:1018A000E780405EAA8562452ECAAECEAEC89710CC
:1018B0000000E780007EAA85524597100000E7806F
:1018C000C07EE24597100000E780607DAACA8808C4
:1018D000CC0897000000E780C010AA8572458C41B3
:1018E000AED02ACD2ECF2AD197000000E780005C31
:1018F00009A837650080130585D397200000E7808D
:10190000C01F130571022AD9371508009305054039
:10191000AED61305C5412ADC2AC92ACB97000000A0
:10192000E78040562AD80818AADC42552A057D814E
:10193000A30FA106A307A1021305F102AAD2AAD4FC
:101940000345F102058955DD09A0FA50296182801D
:10195000397106DE2ACE2ED02ED82EDA0145A30C00
:10196000A1022ED22304A1020565130555D02AC871
:101970002317A10212552AC697200000E780608233
:101980008345810297100000E78060759710000082
:10199000E7802070AA85324597100000E780E0724A
:1019A000424592552ECA231DA10297100000E780E0
:1019B000407FAA85424597100000E780006F83456D
:1019C000810297100000E7808071AA855245971028
:1019D0000000E780406E1255F25021618280317123
:1019E00006DFAE862AD636D836D336D50D46A307BF
:1019F000C10AB6CC230EC10405452AD0A30BA1040D
:101A0000834571052EC2B6D02302C106A305B106D7
:101A1000230BB108B6D62308C106230BB106B65571
:101A20002EC08345010797100000E780406B971098
:101A30000000E7800066AA85024597100000E78055
:101A4000C06812458255365632C4230DA10A97103C
:101A50000000E78080658345010797100000E7805C
:101A60000068AA85224597100000E780C0640255EF
:101A7000B65636CD36CF0946A301C10A36DC230E51
:101A8000C102A30BA102834571032EC8B6C0230275
:101A9000C104A305B104A30AB108B6C62308C10452
:101AA000230BB104B6452EC68345010597100000EF
:101AB000E780E06297100000E780A05DAA853245CC
:101AC00097100000E780606042458255364632CA72
:101AD000A30DA10A97100000E780205D8345010552
:101AE00097100000E780A05FAA855245971000007C
:101AF000E780605C0255B64636D936DB0146230CDA
:101B0000C10AB6DC230EC106A30BA10683457107EB
:101B10002ECE36C12302C108A305B108A30BB1081C
:101B200036C72308C108230AB108BA452ECC83451D
:101B3000010997100000E780805A97100000E780A5
:101B40004055AA85624597100000E780005872450D
:101B500082553A4632D2A30CA10A97100000E780C2
:101B6000C0548345010997100000E7804057AA85BB
:101B7000125597100000E78000543A45FA50296149
:101B80008280411141018280717106D7A30AB1029E
:101B90002ADE97E0FFFFE7806071AA852ED6AA852E
:101BA0002ED80D8909E509A0325501EDBDA8C25511
:101BB00037660080130686D4114597200000E78021
:101BC00060EE3255AADA71052AD0AAC0AAC613055A
:101BD000F03F97100000E780C04BAA8501452ACE50
:101BE00097100000E780604CF24597100000E780F6
:101BF000004BAAC4A80097000000E7808012AA85C5
:101C000002558C41AEC82AD12ED32AD597000000A8
:101C1000E780C02997E0FFFFE7804069AA852ED2C0
:101C2000AA852ED40D8911C921A837650080130516
:101C300085D497200000E78040EC125501ED61A0AB
:101C4000A25537660080130686D5114597200000FF
:101C5000E78040E51255AADC130585022ACCAACEFE
:101C6000930551032ECAAED02AC32AC5970000009F
:101C7000E78040212AC6AAD2AACA01452AC89710DD
:101C80000000E7800041AA85324597100000E780F8
:101C9000C041C24597100000E7806040AA855245C8
:101CA000AECCCC08B00897000000E780E010AA8511
:101CB00062458C41AED42ACB2ECD2ACF97000000AE
:101CC000E780C01E09A837650080130585D59720D9
:101CD0000000E78080E20255AAC22AC72AC99700FD
:101CE0000000E780201A2ADC2818AADE03458103B9
:101CF00066057D81A301A108A30BA1021305710351
:101D0000AAD6AAD803457103058971D509A019453A
:101D1000230BA10203456103BA504D6182805D71BE
:101D200086C6AA8636CCB6C0B6C21946A304C1047C
:101D300036D02302C10205452AC6A30FA100834560
:101D4000F1012EC436D42306C102A309B102230532
:101D5000B10436DA230CC102A30FB102D2552EC250
:101D60008345810397100000E780603797100000DB
:101D7000E7802032AA85124597100000E780E03402
:101D80002245B245525632C8A305A104971000005F
:101D9000E780A0318345810397100000E78020345D
:101DA000AA85424597100000E780E0305255B640C2
:101DB00061618280397106DE2ACC2ECE32D032D8D3
:101DC00032DA8145A30CB1026245034505002AC8F9
:101DD00032D22304B1022317A10212552AC697104A
:101DE0000000E780603C8345810297100000E78097
:101DF000002F97100000E780C029AA853245971070
:101E00000000E780802C424592552ECA231DA10276
:101E100097100000E7804039AA85424597100000DE
:101E2000E780A0288345810297100000E780202BDF
:101E3000AA85524597100000E780E0271255F2501E
:101E400021618280797106D62AC82ECA2ECC2ECE68
:101E50000545A301A1022ED22304A10292552EC44E
:101E60008345810297100000E7806027AA852245FC
:101E700097100000E78020241255B25045618280FF
:101E8000411106C62AC02AC209A002459145014651
:101E900097100000E780200309A0024508412AC4EA
:101EA0002245B24041018280011106CE2EC62AC8C9
:101EB0002ACA2ECC09A04245914501469710000040
:101EC000E780200E09A03245C24588C1F240056175
:101ED0008280411106C697100000E780A06AA30522
:101EE000A100A304A10097E0FFFFE78040582AC2A9
:101EF0001305910097100000E78000FB1245B240E7
:101F000041018280797106D62AC82ECA2ECC2ECEE7
:101F10003145A301A1022ED22304A10212552AC4E5
:101F200083458102054597100000E780401BAA8584
:101F3000224597100000E78000181255B250456105
:101F40008280757106C72E862AD632D832DA32DC04
:101F500005452AD0A30FA102B2C62308A1048145DA
:101F60002ECAA305B1048345B1042EC6B2CA230C00
:101F7000A104A30FB1042305B106B2D02302A10628
:101F8000A304B10686552EC4834541069710000070
:101F9000E780E01497100000E780A00FAA85224593
:101FA00097100000E780601232458255065632C80D
:101FB000A305A10897100000E780200F8345410684
:101FC00097100000E780A011AA85424597100000F5
:101FD000E780600E524602558656B6C0B6C223054B
:101FE000C104B6D62308C106A305C1068345B106C0
:101FF0002ECEB6DA230CC106A30FB106A304B10896
:1020000036C12302C1082304B1088A452ECC83457A
:10201000410897100000E780800C97100000E780CF
:102020004007AA85624597100000E780000A7245C4
:1020300082550A4632D22305A10897100000E78096
:10204000C0068345410897100000E7804009AA8533
:10205000125597100000E78000060A45BA40496112
:102060008280757106C72E862AD432D6B2DAB2DCE7
:1020700005452ACEA30FA10632DA230CA102814521
:102080002EC8A309B102834531032EC432DE2300DA
:10209000A104A303B1042309B104B2C42306A1041B
:1020A000A308B104A6452EC28345C10497100000C1
:1020B000E780E00297100000E780A0FDAA851245A6
:1020C00097100000E78060002245F245264632C6A0
:1020D000A305A10897100000E78020FD8345C104F7
:1020E00097100000E780A0FFAA85324597100000F6
:1020F000E78060FC42467245A64636C136C3A3045B
:10210000C108B6CA230CC104A309C1048345310523
:102110002ECCB6CE2300C106A303B106A309B10697
:10212000B6D42306C1062309B106A6552ECA834597
:10213000C10697100000E78080FA97100000E78042
:1021400040F5AA85524597100000E78000F86245E7
:10215000F245265632D02305A10897100000E780EB
:10216000C0F48345C10697100000E78040F7AA85B8
:10217000025597100000E78000F42655BA404961E7
:102180008280397106DE2ACC2ECE32D032D832DAB5
:102190008945230DB1026245034505002AC832D2A4
:1021A0002304B102A307A10212552AC6971000000A
:1021B000E78060008345810297100000E78020F2ED
:1021C00097100000E780E0ECAA85324597100000E8
:1021D000E780A0EF424592552ECAA30DA1029710A9
:1021E0000000E78040FDAA85424597100000E78087
:1021F000C0EB8345810297100000E78040EEAA857E
:10220000524597100000E78000EB1255F250216113
:102210008280397106DE2ACC2ECE32D032D832DA24
:102220009945230DB1026245034505002AC832D203
:102230002304B102A307A10212552AC69710000079
:10224000E78020F78345810297100000E78020E9AE
:1022500097100000E780E0E3AA8532459710000060
:10226000E780A0E6424592552ECAA30DA102971021
:102270000000E78000F4AA85424597100000E7803F
:10228000C0E28345810297100000E78040E5AA85FF
:10229000524597100000E78000E21255F25021618C
:1022A0008280557186C732D62ADA2EDEB2C05255E8
:1022B000034505002AD819C909A042551375F50F21
:1022C00085456304B50A09A081A200003256B2CE4A
:1022D000B2D0A9452303B10632D52306B10A014580
:1022E000A303A10A0345710A2AD232D9230AB10AEB
:1022F000A30DA10A2304A10C32DF2300B10CA30318
:10230000A10C7A552AD097100000E78040EA834557
:10231000010C97100000E78080DC97100000E78038
:1023200040D7AA85025597100000E78000DA1255C1
:10233000FA552ED4A304A10C97100000E78020E7E3
:10234000AA85125597100000E78020D68345010C1E
:1023500097100000E780A0D8AA85225597100000AA
:10236000E78060D57A552ADC3DAA3256B2C8B2CA97
:10237000A945A30DB104B2D42306B1060545A303B4
:10238000A106034571062ACCB2D8230AB106A30DD3
:10239000A1062303A108B2DE2300B108A302A1080D
:1023A00076552ACA97100000E78060E0834501084F
:1023B00097100000E780A0D297100000E78060CD62
:1023C000AA85524597100000E78020D06245F65557
:1023D0002ECEA305A10C97100000E78040DDAA8552
:1023E000624597100000E78040CC834501089710B4
:1023F0000000E780C0CEAA85724597100000E780F4
:1024000080CB76552ADC45A03256B2C2B2C4A9456B
:10241000A307B10432C52306B1080945A303A108E7
:10242000034571082AC632C9230AB108A30DA108C1
:102430002303A10A32CF2300B10AA302A10A7A45DD
:102440002AC497100000E78080D68345010A9710C0
:102450000000E780C0C897100000E78080C3AA850D
:10246000224597100000E78040C63245FA452EC845
:102470002305A10C97100000E78060D3AA853245A0
:1024800097100000E78060C28345010A97100000A2
:10249000E780E0C4AA85424597100000E780A0C10C
:1024A0007A452ADC09A06255BE4069618280357197
:1024B00006CF32D42AD62EDA32DC32550345050057
:1024C000058949C909A0A256B6CAB6D20946A305CC
:1024D000C106B6C02302C10405452AD0A30FA1023C
:1024E0008345F1032ECE36C32304C1082307B10868
:1024F000A307B10836C9230AC108A30CB108CA450D
:102500002ECC8345410997100000E78040BD97100D
:102510000000E78000B8AA85624597100000E780B8
:10252000C0BA724582554A4632D2230DA10897108F
:102530000000E78080B78345410997100000E780DD
:1025400000BAAA85125597100000E780C0B64A4528
:102550002AD849A82256B2CCB2CE8945A301B106E9
:10256000B2C62308B1040145A305A1040345B10483
:102570002AC6B2D62308B106230BA106A30BA106D7
:10258000B2DC230EB106A301A10866552AC4834517
:10259000C10705452AC897100000E78040B497108E
:1025A0000000E78000AFAA85224597100000E78071
:1025B000C0B13245C245665632CAA30DA108971074
:1025C0000000E78080AE8345C10797100000E780D8
:1025D00000B1AA85524597100000E780C0AD66554E
:1025E0002AD809A04255FA400D6182806D712326D8
:1025F000111032D82ADCAEC0B2C2625503450500C4
:102600002ADA15C109A052551375F50F8545630ADD
:10261000B50A09A052551375F50F89456302B51423
:1026200009A0F1AA0000425632C332C58145A30772
:10263000B108B2D8230AB106A307B1060345F106D3
:102640002AD432D52306B10A2309A10AA309A10A73
:1026500032DB230CB10AA30FA10A5A552AD29710D4
:102660000000E780C0B48345810B97100000E7802D
:1026700000A797100000E780C0A1AA851255971007
:102680000000E78080A42255DA552ED6A305A110BC
:1026900097100000E780A0B1AA852255971000008E
:1026A000E780A0A08345810B97100000E78020A35E
:1026B000AA85325597100000E780E09F5A552ADE20
:1026C000F1AA425632C132C98145A30BB108B2C644
:1026D0002308B1040545A305A1040345B1042ACE8E
:1026E000B2D9230AB10E230DA10EA30DA10EB2DFA4
:1026F0002300B110A303A1107E552ACC971000002F
:10270000E780E0AA8345011097100000E780209D34
:1027100097100000E780E097AA85624597100000B7
:10272000E780A09A7245FE552ED02304A110971081
:102730000000E780C0A7AA85724597100000E780D7
:10274000C0968345011097100000E7804099AA8544
:10275000025597100000E78000967E552ADE3DAABC
:102760004256B2DE32CD8145A30FB108B2D2230466
:10277000B1060945A301A106034531062AC8B2C125
:102780002302B10C2305A10CA305A10CB2C7230899
:10279000B10CA30BA10C3E452AC697100000E780A0
:1027A00000A18345010D97100000E780409397102A
:1027B0000000E780008EAA85324597100000E78070
:1027C000C0904245BE452ECA2305A11097100000B7
:1027D000E780E09DAA85424597100000E780E08CE5
:1027E0008345010D97100000E780608FAA85524550
:1027F00097100000E780208C3E452ADE45A0425617
:10280000B2DC32D18145A303B10AB2CC230EB104AC
:102810000D45A30BA104034571052AC2B2CD230EB9
:10282000B10C2301A10EA301A10EB2D32304B10E5A
:10283000A307A10E1E552AC097100000E78020971D
:102840008345810E97100000E78060899710000093
:10285000E7802084AA85024597100000E780E08683
:1028600012459E552EC4A304A11097100000E780C6
:102870000094AA85124597100000E78000838345E5
:10288000810E97100000E7808085AA852245971069
:102890000000E78040821E552ADE09A07255832081
:1028A000C11051618280011132C42A86224532C68C
:1028B0002EC82ACAB24583C505002ACC2ECE0CC12B
:1028C00005618280011132C42A86224532C62EC893
:1028D0002ACAB24583C505002ACC2ECE0CC105619B
:1028E0008280011132C42A86224532C62EC82ACAE5
:1028F000B24583C505002ACC2ECE0CC1056182806D
:10290000557186C732D62ADA2EDEB2C0525503453B
:1029100005002AD819C909A042551375F50F854538
:102920006304B50A09A081A200003256B2C1B2C345
:10293000A9452304B10C32C52306B1080145A30300
:10294000A108034571082AD232C9230AB108A30D90
:10295000A108A303A10A32CF2300B10A2303A10ACD
:102960007A452AD097100000E78060848345010AE9
:1029700097000000E780A07697000000E780607174
:10298000AA85025597000000E78020741255FA4589
:102990002ED4A304A10C97100000E7804081AA85E3
:1029A000125597000000E78040708345010A9700A8
:1029B0000000E780C072AA85225597000000E780DA
:1029C000806F7A452ADC3DAA325632DB32DDA945DA
:1029D000A30FB10AB2C42306B1040545A303A104A1
:1029E000034571042ACCB2C8230AB104A30DA10483
:1029F0002303A106B2CE2300B106A302A1067645A9
:102A00002ACA97000000E780807A83450106970074
:102A10000000E780C06C97000000E7808067AA850F
:102A2000524597000000E780406A6245F6452ECE89
:102A3000A305A10C97000000E7806077AA85624596
:102A400097000000E780606683450106970000005C
:102A5000E780E068AA85724597000000E780A065DE
:102A600076452ADC45A0325632D532D7A945A3098E
:102A7000B10AB2D42306B1060945A303A106034552
:102A800071062AC6B2D8230AB106A30DA1062303F4
:102A9000A108B2DE2300B108A302A10876552AC41A
:102AA00097000000E780A0708345010897000000B0
:102AB000E780E06297000000E780A05DAA852245DC
:102AC00097000000E78060603245F6552EC8230568
:102AD000A10C97000000E780806DAA853245970021
:102AE0000000E780805C8345010897000000E780D4
:102AF000005FAA85424597000000E780C05B7655DD
:102B00002ADC09A06255BE4069618280357106CF1A
:102B100032D42AD62EDA32DC325503450500058937
:102B200049C909A0225632DEB2D28145A305B106B9
:102B3000B2C42306B104A303B104034571042ACE31
:102B400032C32304B1082307A108A307A10832C98F
:102B5000230AB108A30CA1084A452ACC83454109A0
:102B600005452AD097000000E780605797000000D5
:102B7000E7802052AA85624597000000E780E05474
:102B8000724582554A4632D2230DA10897000000B3
:102B9000E780A0518345410997000000E780205459
:102BA000AA85125597000000E780E0504A452AD8D0
:102BB00041A82256B2C0B2CE8145A301B106B2CA25
:102BC000230CB104A309B104034531052AC6B2D6CA
:102BD0002308B106230BA106A30BA106B2DC230E2A
:102BE000B106A301A10866552AC48345C10705455E
:102BF0002AC897000000E780804E97000000E78019
:102C00004049AA85224597000000E780004C3245E4
:102C1000C245665632CAA30DA10897000000E7809E
:102C2000C0488345C10797000000E780404BAA8554
:102C3000524597000000E780004866552AD809A051
:102C40004255FA400D6182805D7186C6AE862ACCFF
:102C500036CE36D036D201462305C10236D62308F9
:102C6000C10205452AC6A305A1028345B1022EC4AF
:102C700036DA230CC102A30FB1022305B104B6C09A
:102C80002302C104A304B10486452EC28345410436
:102C900097000000E780A04497000000E780603FB5
:102CA000AA85124597000000E78020422245B245E0
:102CB000064632C8A305A10497000000E780E03E65
:102CC0008345410497000000E7806041AA854245A2
:102CD00097000000E780203E0645B6406161828093
:102CE0005D7186C62E862ACC32CE32D032D20545D0
:102CF0002AC62305A10232D62308A102A305A102F8
:102D00008345B1022EC432DA230CA102A30FB10213
:102D10002305B104B2C02302A104A304B104864573
:102D20002EC28345410497000000E780403B970096
:102D30000000E7800036AA85124597000000E78072
:102D4000C0382245B245064632C8A305A104970003
:102D50000000E78080358345410497000000E7804C
:102D60000038AA85424597000000E780C034064538
:102D7000B640616182805D7186C6AE862ACA36CC55
:102D8000B6C0B6C201462305C10436D02302C10233
:102D900005452AC4A30FA1008345F1012EC236D4F4
:102DA0002306C102A309B102A30FB10236DA230C34
:102DB000C102230FB102D2552EC083458103970073
:102DC0000000E780C03197000000E780802CAA85D2
:102DD000024597000000E780402F1245A245525659
:102DE00032C6A305A10497000000E780002C8345AC
:102DF000810397000000E780802EAA853245970066
:102E00000000E780402B5255B640616182805D71C1
:102E100086C62E862ACA32CCB2C0B2C205452AC4A2
:102E20002305A10432D02302A102A30FA1008345F0
:102E3000F1012EC232D42306A102A309B102A30FCD
:102E4000B10232DA230CA102230FB102D2552EC0F7
:102E50008345810397000000E78060289700000009
:102E6000E7802023AA85024597000000E780E0253F
:102E70001245A245525632C6A305A1049700000090
:102E8000E780A0228345810397000000E78020258A
:102E9000AA85324597000000E780E0215255B640F0
:102EA00061618280411106C62AC02AC2034505001D
:102EB000A305A10097000000E780E06DB24041014A
:102EC000828039712EC42AC6B28636C82AD62ED838
:102ED000A30BC10237650080130545D92ADC13D541
:102EE00015003756555513065655718D898D373552
:102EF00033331306353333F5C5008981F18D2E95B3
:102F0000935545002E95B7150F0F9385F5F06D8DF0
:102F1000B7050101938515103305B50261812ADEDD
:102F200072558545631BB50009A03245A2452A8626
:102F300032C2FD156D8D1DCD91A037650080130542
:102F400045D92ACA05452ACC37650080832505E87E
:102F5000130505E848412ED22AD411452ACE014551
:102F60002AD0B7650080938505F1480897100000C6
:102F7000E78060A44245058911E511A029A012450A
:102F800009ED11A019A8376500801305C5D993056F
:102F9000300E97100000E780C0AC2161828039714B
:102FA0002EC22AC4B28636C62AD42ED6A309C1029E
:102FB00037660080130646D932DA2ADC13D51500AD
:102FC0003756555513065655718D898D3735333320
:102FD0001306353333F5C5008981F18D2E95935550
:102FE00045002E95B7150F0F9385F5F06D8DB7053C
:102FF0000101938515103305B50261812ADE7255F2
:103000008545631BB50009A0224592452A8632C03A
:10301000FD156D8D1DCD91A037650080130545D937
:103020002AC805452ACA37650080832505E81305A7
:1030300005E848412ED02AD211452ACC01452ACE96
:10304000B7650080938505F1080897100000E780B8
:1030500080963245058911E511A029A0024509EDA8
:1030600011A019A837650080130505F29305400EDD
:1030700097100000E780E09E2161828041112AC6FE
:10308000034505001345F5FF058941018280411183
:103090002AC61345F5FF4101828041112AC42EC67C
:1030A0004D8D4101828041112AC42EC66D8D410192
:1030B000828041112E86AA852EC432C68841518D48
:1030C00088C14101828041112E86AA852EC432C654
:1030D0008841718D88C14101828041112AC02E86AC
:1030E00032C22AC4A307B1007D456369B50009A0B7
:1030F000024592453315B500410182803765008055
:103100001305450797200000E780203241112AC2AD
:103110002AC4930500082EC60CC1410182804111CA
:103120002AC22AC4930500042EC60CC14101828024
:1031300041112AC22AC4930500022EC60CC14101C6
:103140008280011136C0AA86024536C22EC432C61C
:103150002AC832CA0C42124610421346F6FFF18DBD
:1031600022461042D18D2ACC2ECE0CC10561828020
:10317000011136C0AA86024536C22EC432C62AC8FC
:1031800032CA0C42124610421346F6FFF18D224617
:103190001042D18D2ACC2ECE0CC1056182804165B2
:1031A0007D1582801305F01F82800D4582803D458C
:1031B00082801305F00F8280411106C62E86AA85F3
:1031C0002EC232C48841CC4197100000E780A06E27
:1031D000B24041018280411106C62AC22EC4084174
:1031E00097000000E780E000B240410182800111B9
:1031F00006CE2EC42AC62ACA2ECC03C5B50009891C
:1032000001E909A022450345B500118919C91DA08E
:10321000A245324597200000E7808024A309A10041
:1032200025A0A245324597200000E780003EA30973
:10323000A10011A8A245324597200000E780A028F0
:10324000A309A10009A009A003453101F2400561CD
:103250008280597186D62ED42AD6AAC6AEC8084115
:103260002AD842550A05B7650080938545082E95F2
:103270000841028500002255B25593874500BECA19
:1032800093868500B6CCB1052EDCB76500809385AA
:1032900085130A860CCE2C184CCA8D450CCA37678C
:1032A00000801307371358C63768008013080812C8
:1032B0002324060154C20CC2B76500809385850F94
:1032C000B766008093868611B768008093880813DC
:1032D0004146154797100000E780203BA30BA10251
:1032E000B9AA2255B2559387C500BECE13864500B4
:1032F000B2D0A1052EDEB7660080938686138A853C
:1033000094CD7418D4C99D4694C9B766008093863D
:103310005617D4C5B76600809386061294C5D0C1EF
:10332000154798C1B765008093858514B7660080FE
:10333000938696153768008013080816B7680080D2
:1033400093880817454697100000E7800034A30BC8
:10335000A102F5A02255B25593878500BED29105F2
:10336000AEC037660080130686138A8590C590002C
:10337000D0C1154798C1B76500809385C517B7665A
:103380000080938696153768008013080816B76882
:103390000080938808174D4697100000E7800022B0
:1033A000A30BA10269A82255B25593874500BED44C
:1033B000A105AEC2B7650080938585130A860CC649
:1033C000CC004CC29D450CC2B76500809385F518B2
:1033D000B7660080938606173768008013080812C6
:1033E000B76800809388581731461547971000003A
:1033F000E780C01CA30BA10299A02255B2559105EC
:10340000AEC4B76500809385B51937670080130790
:1034100087133946B40097100000E7802037A30BCC
:10342000A10231A82255B76500809385951A3546CB
:1034300097100000E7802017A30BA10209A0034505
:103440007103B65065618280011132C22EC42AC652
:103450002AC82ECA32CC7D45636CC50009A09245AE
:1034600005453315B5009305F5FF2EC015C109A814
:10347000376500801305052197200000E780E0FAFA
:10348000224582452ECE93050002636BB5000DA048
:10349000376500801305052197200000E780C0EE06
:1034A0008245324522463355C5006D8D05618280C7
:1034B000376500801305052297200000E78080F320
:1034C000411106C697000000E7806006B240410146
:1034D0008280411106C6737504302AC212452AC47F
:1034E000280097000000E780A002B24041018280DE
:1034F000411106C6A305A10009E509A0B24041019A
:10350000828097000000E780E0FBCDBF411106C636
:103510002AC408418D45054697000000E78000F366
:103520003335A000B24041018280797121452ACA19
:103530002AD67320053099452EC002456300B50494
:1035400009A042452AD432452AD222452AD0124522
:103550002ACE02452ACC376500801305C50AB76616
:1035600000809386C60937670080130747299305B3
:10357000B002300897000000E780805B45618280E0
:10358000411106C697000000E780E0F4B240410117
:103590008280411106C6A305A10097000000E780C4
:1035A00060F5B24041018280828082808280828088
:1035B00082808280828082808280828082808280FB
:1035C00082808280828082808280828082808280EB
:1035D00082808280828082808280828082808280DB
:1035E00082808280828082808280828082808280CB
:1035F00082808280411106C622C426C24AC00008C9
:10360000AE842A8997200000E78040F219E9CC4077
:103610008840D445B76500809385156E094682962B
:1036200001C90545B24022449244024941018280C9
:1036300013054900A685B240224492440249410143
:1036400017230000670083EE797106D622D426D2B4
:103650004AD000189306700263E1B60293962500E3
:10366000376700801307472ABA96944282868D6591
:10367000130600209385C505FDAC9306C00563982D
:10368000D5009965130600209385C5C5EDA4058A6C
:10369000630406181306F02F6370B6182A892E8566
:1036A000AE8497200000E780E01BA6852A864A8525
:1036B0006304061613D31500B7525555B738333384
:1036C00037180F0F93D3450137690080130989100C
:1036D000139EC500939E0501139F4501939F85018D
:1036E00033E66500BD89CA931357CE0193D7CE0147
:1036F0009354CF0193D6CF01CA954A97CA97CA94DB
:10370000369993562600558E93564600558E9356FD
:103710008600558E3703010183C603000347070067
:1037200083C7070083C40400231C04FC230D04FC8E
:10373000A30DD4FC230EE4FC9303D007138752554A
:103740008346090083C50500A30EF4FC230F94FCF7
:10375000A30FD4FCA30074FE93560601558E1346A6
:10376000F6FF93561600F98E130784FD93873833BE
:10377000799A158EB376F60009827D8E9308C0057E
:103780003696935646003696930650079304F8F003
:10379000658E9304B007930713103306F60269820F
:1037A0009307E6FF3A963E9723001701A30FD6FE34
:1037B000230096002300B4FE832584FD0326C4FD68
:1037C000831604FE29470CC150C12314D5002305DC
:1037D000F500A305E500B250225492540259456108
:1037E00082809D65130600209385C5E569A2137646
:1037F00006101DC28965130600209385C575A5AA0C
:103800009D65B5A29D65130600209385C545A5A2BB
:1038100022066182631C06142A89AE842E859720B5
:103820000000E78080A109CD130500082300A9004E
:1038300023229900B2502254925402594561828049
:10384000A68613D31400B7525555B73833333718FB
:103850000F0F93D34401B7670080938787101395A8
:10386000C400939504011396440113978401B3E4B3
:103870006400BD8ABE937181F18171827183BE96AD
:103880003E95BE953E963E9793D72400DD8C93D708
:103890004400DD8C93D78400C58F3703010183C4B6
:1038A00003000345050083C50500034606002312F7
:1038B00004FE230304FEA30394FE2304A4FE1305C5
:1038C000D007938452550347070083C60600A3041C
:1038D000B4FE2305C4FEA305E4FEA306A4FE13D58F
:1038E00007015D8D1345F5FF93551500E58D130612
:1038F00044FE1387383379990D8DB375E50009813E
:10390000798D1307C0052E95935545002E95930587
:1039100050079307F8F07D8D9307B00793041310B9
:103920003305950269819304E5FF329526962300BD
:10393000E600A30FB5FE2300F5002306D4FE032501
:1039400044FE832584FE0316C4FEA9462320A90055
:103950002322B9002314C90023059900A305D90027
:10396000B2502254925402594561828089651306EF
:1039700000209385C5250CC12312050023130500E3
:10398000231405002315C500B25022549254025945
:1039900045618280411106C622C400082A86376527
:1039A00000801305B56E9305B00297000000E78014
:1039B000A007011106CE22CC001005462326A4FE46
:1039C0002328B4FE231AC4FE1305C4FE97D0FFFFBC
:1039D000E780E068797106D622D400180328050133
:1039E000832845011C41544118454845232204FFC2
:1039F000232414FF130844FD232AF4FC232CD4FCB5
:103A0000232EE4FC2320A4FE232604FF2328C4FE47
:103A1000230A04FEA30AB4FE1305C4FE97D0FFFFD9
:103A2000E780E063797106D622D400182328A4FE2B
:103A3000232AB4FE130504FF8545232404FE914682
:103A4000232CA4FC232EB4FC2320D4FE232204FE2A
:103A5000130584FDB28597000000E780C0F57971F9
:103A600006D622D400182328A4FE232AB4FE130568
:103A700004FF8545232404FE1146232CA4FC232E99
:103A8000B4FC2320C4FE232204FE37660080130604
:103A90004673130584FD814597000000E780C0F35D
:103AA000397106DE22DC80002324A4FC2326B4FC2A
:103AB000130584FCB75500809385C5459306C4FC67
:103AC00037680080130848788947376700801307F4
:103AD000477997220000E782A2E9B8D2FCD22328D6
:103AE00004FDFCCAA8CEFCCE130504FD8145970059
:103AF0000000E78060EE011106CE22CC00102A867D
:103B0000376500801305857E8545232804FE914690
:103B1000130704F828D36CD334D7232604FE1305E7
:103B200004FE814597000000E78000EB397106DE56
:103B300022DC80002320A4FC2322B4FC2324C4FC28
:103B40002326D4FC130804FCB758008093882878F7
:103B5000130684FCB75600809386C676B76700804C
:103B60009387477F0945232004FE930584FE232481
:103B700004FF232614FF2328C4FE232AD4FE23286F
:103B8000F4FC232AA4FC232CB4FC232EA4FC130550
:103B900004FDBA8597000000E780E0E15D7186C60C
:103BA000A2C4A6C2CAC04EDE52DC56DA5AD85ED6CD
:103BB00062D466D26AD06ECE8008328C2E8981495A
:103BC000014B814BB7150A0A370601011441232224
:103BD000D4FC54412320D4FC08452324A4FC130521
:103BE000F9FF232CA4FA33058041232EA4FA138A6B
:103BF000A5A0930C0610294D37858080930D0508EC
:103C000015A8032584FB5695034505005915133562
:103C10001500832584FC2380A500032504FC54455E
:103C200033863A41B3053901032544FC8296A689BF
:103C30006318051213F51B006312051263776C01FC
:103C400063163C0F21AAE36D6CFF33086C4133050A
:103C500069019D4563E2050363076C0D81450326F9
:103C6000C4FB5A96AA8603C706006308A709FD1578
:103C70008506E31AB6FE45A813073500719B330687
:103C8000A74005C28146B305D50083C505006388FA
:103C9000A5078506E319D6FE930688FF63F5C600DF
:103CA0001DA8930688FF91452E978327C7FF0443DD
:103CB000B3C54701B3C44401B385BC40DD8DB387B0
:103CC0009C40C58FFD8DB3F5B5016396B501210606
:103CD0002107E3FCC6FC6308C804B306C500B305AE
:103CE000C0400326C4FB5A9603C706006307A7011A
:103CF000FD158506E31AB6FE3DA0B306B040B385B8
:103D00006601138B1500E3F085F536950345050034
:103D1000E31BA5F3814BDA84DA8A032584FC03458F
:103D200005000DC921A8628B630A3C03854BCE8434
:103D3000E28A032584FC0345050009CD032504FC24
:103D400054451146032544FCB76500809385756E84
:103D5000829619E5E3973AEB014565BD014511A04F
:103D60000545B640264496440649F259625AD25A4D
:103D7000425BB25B225C925C025DF24D61618280CB
:103D8000011106CE22CC26CA4AC84EC652C4001023
:103D9000044503C6040003290500832945001DC608
:103DA00003A7C900B76600809386766E11464A85E0
:103DB0002E8AB6850297D28511C90545F240624424
:103DC000D2444249B249224A05618280138565FF87
:103DD000133515002380A40083A709014A85F2400A
:103DE0006244D2444249B249224A056182875D71E8
:103DF00086C6A2C4A6C2CAC04EDE52DC56DA5AD863
:103E00005ED662D48008AA8403454500054B854AE6
:103E100015C123825401A38264012685B64026443D
:103E200096440649F259625AD25A425BB25B225C0E
:103E300061618280BA89368903AA040003C55400EF
:103E40008346AA0093F6060899EA93463500AE8B9E
:103E5000328C61E1B77500809385C5817DA81DE135
:103E600083264A0003250A00D846B7760080938649
:103E70001682B28A0D46AE8BB6850297DE855686CF
:103E8000854A41F9854A130874FC83260A000327F2
:103E90004A0083278A000325CA00930884FB232C49
:103EA000D4FA232EE4FA232004FDB776008093860B
:103EB0004680A30354FD232414FD2326D4FC232889
:103EC000F4FC232AA4FC130584FB97000000E78080
:103ED00020CD21F1B76500809385057F130584FB14
:103EE000094697000000E780A0CB05F503A6C900AE
:103EF000930584FC4A85029609FD8325C4FC0325AD
:103F000084FCD445B7750080938545820946829626
:103F1000A9A8B77500809385F58103264A0003257B
:103F20000A00584636860297854AE31405EE6286F3
:103F3000DE8583264A0003250A00D4468296854AF8
:103F4000E31905EC83254A0003250A00D445B7652B
:103F500000809385057F09468296854AE31B05EA22
:103F600003A6C9004A85D2850296AA8A5DB5411189
:103F700006C622C400082E86B7750080938545804A
:103F8000B2402244410117030000670083003971E9
:103F900006DE22DC26DA4AD84ED652D456D25AD081
:103FA0005ECE62CC8000B289370600E083A40901AE
:103FB000130606022324A4FC2326B4FC2328C4FCF5
:103FC000232A04FCF1C403A54901630E051083AB49
:103FD000090003AA89009305F5FF1316350016059D
:103FE000A904894A8E05330BC5408D8113891500BC
:103FF000910B054C03A60B0019CA8326C4FC0325AC
:1040000084FC83A5CBFFD44682966312051003D5AA
:10401000E4FF15C5631D850303A524000E05529515
:104020008355450003D564FF63015503631785037A
:1040300003A5A4FF0E055295035645000DA083D598
:10404000040003D564FFE31355FF014609A8814529
:1040500003D564FFE31C55FDCDBF03D684FF03A544
:10406000640083A6A4000E053307AA000843584342
:104070002328D4FC231AB4FC231BC4FC930584FC22
:10408000029751E5A10B211BE104E3150BF6B9A042
:1040900003A5C90029C983AA090083A48900131AAA
:1040A00035007D150E050D8113091500269A910A1C
:1040B00003A60A0011CA8326C4FC032584FC83A539
:1040C000CAFFD446829621E58840D040930584FCFF
:1040D000029615EDA104A10AE39C44FD03A5490045
:1040E0006368A9003DA0014903A549006373A002CC
:1040F00083A509000E09032584FC8326C4FC2E99A0
:104100008325090003264900D446829619C1054536
:1041100011A00145F2506254D2544259B259225A68
:10412000925A025BF24B624C21618280397106DE49
:1041300022DC26DA4AD84ED652D456D25AD05ECE97
:1041400062CC66CA6AC86EC68000BE893A89368A61
:10415000B28AAA8BADCD83A48B0037052000658D74
:10416000370B110019C1130BB0025581B30C350187
:1041700013958400635705064145637BAA0A0145F0
:10418000630F0A00B3854A015686830606000506BA
:1041900093A606FC93C616003695E318B6FEAA9CB5
:1041A00083DDCB0063F4BC0513957400232424FD48
:1041B000634C050833869D4113951400798185452C
:1041C000AE0463C7A50E631E0510814D21AA83A40A
:1041D0008B00938C1900130BD00213958400E34DD0
:1041E00005F8814A83DDCB00E3E0BCFD03AC0B00A6
:1041F00083A44B006285A6855A86D686528797008F
:104200000000E780C01863170510DC446285CA858A
:104210004E86F2506254D2544259B259225A925A9E
:10422000025BF24B624CD24C424DB24D216182870F
:104230005685D28597100000E780E0A4AA9C83DD14
:10424000CB00E3F5BCFB8DB703AC0B0003A94B001F
:1042500003AD8B0083A4CB003705E09FB70500209A
:104260003375AD00938505034D8D23A4AB006285A6
:10427000CA855A86D686528797000000E7802011AB
:10428000054A51E9232294FC814433859D41C16A4A
:10429000FD1A337B550133F554016374650303261E
:1042A0000901850493050003628502966DD5A5A0DA
:1042B0008945B28D6318B50213150601935D15018A
:1042C00015A08326C9006285832584FC4E868296CC
:1042D00039E1014A23A4AB01032544FC23A6AB002A
:1042E0001DA8B28D2322C4FC014913DCB40083ACA9
:1042F0000B0083AB4B00C164FD1433FD9D0033758F
:104300009900637AA50303A60B0105096685E2857A
:10431000029675D5054A5285F2506254D2544259DC
:10432000B259225A925A025BF24B624CD24C424D25
:10433000B24D216182806685DE855A86D686528797
:1043400097000000E780A004054A71F583A6CB0022
:104350006685832584FC4E86829655FD814403251F
:1043600044FC3305B54141697D19B379250133F525
:104370002401333A3501E37035FB03A60B018504B4
:104380006685E285029665D579B7011106CE22CC05
:1043900026CA4AC84EC652C400103A89368AAE8927
:1043A000B7051100630CB60083A60901AA84B28583
:1043B0008296AA85268599C1054505A0630E0A0047
:1043C00083A7C900D2854A86F2406244D24442495A
:1043D000B249224A056182870145F2406244D244D3
:1043E0004249B249224A05618280797106D622D4B7
:1043F00026D24AD04ECE52CC56CA5AC85EC662C4E5
:1044000066C26AC00018B289044537060018658E76
:104410002E89630006149395340063C70504C145D3
:1044200063FFB9088145638F090033063901CA86E5
:10443000038706008506132707FC13471700BA9564
:10444000E398C6FE0356C50063F5C510814B330BD8
:10445000B64013961400798285469395B40063CED6
:10446000C60659C2DA8B49A08355E500E1CDB306F3
:1044700039019308000E1308000F2E86CA87814960
:1044800011A813871700B38737417D16B309F7408A
:10449000BA875DCA638AD70A03870700E35307FE1A
:1044A0001377F70F636717016368070113874700E6
:1044B000D9BF13872700C1BF13873700E9B72A8AFE
:1044C0004A85CE8597000000E780E07BAA8552856B
:1044D0000356CA0063FFC50695BF89466316D6001A
:1044E00013160B01935B1601814413DAB500832A7E
:1044F0000500032C4500C16CFD1C33FD9B0133F509
:104500009401637AA50103260C0185045685D285A2
:10451000029675D501A88326CC005685CA854E869D
:10452000829639C905494A85B2502254925402599B
:10453000F249624AD24A424BB24B224C924C024D53
:104540004561828081490146918D0356C500E3EFA4
:10455000C5EE4C410841DC45CA854E86B250225416
:1045600092540259F249624AD24A424BB24B224C0F
:10457000924C024D45618287814433057B41C1697C
:10458000FD19337B350133F5340133396501E37CA3
:1045900065F903260C0185045685D285029665D5FA
:1045A00059B7411106C622C4000854410841DC46EF
:1045B000B240224441018287397106DE22DC26DACC
:1045C0004AD84ED652D456D25AD05ECE62CC66CAA3
:1045D00080004689C2893E8ABA8A368BAA840841FD
:1045E000D440832B0400032C4400832C8400D44645
:1045F0008296232694FC2308A4FCA30804FC13053C
:10460000C4FCDA855686D2864E8797F0FFFFE78096
:10461000407E1305C4FCCA855E86E286668797F0F5
:10462000FFFFE780007D834504FD034614FD3365ED
:10463000B60005CE858995E90325C4FC8345A50010
:1046400093F5050891E94C410841D445B7750080C0
:1046500093857582094609A84C410841D445B77530
:10466000008093856582054682960589F2506254E2
:10467000D2544259B259225A925A025BF24B624CBE
:10468000D24C216182805D7186C6A2C4A6C2CAC016
:104690004EDE52DC56DA5AD85ED662D466D26AD082
:1046A0006ECE8008232014FDC2893E8ABA8A368BDA
:1046B000AA844844232EA4FA032C0401832C440129
:1046C000032D84018840D440832D04000329440035
:1046D000832B8400D4468296232294FC2304A4FCDA
:1046E000A30404FC130544FCDA855686D2864E8763
:1046F00097F0FFFFE780E06F130544FC832504FC7F
:104700006E86CA865E8797F0FFFFE780806E13058E
:1047100044FC8325C4FB6286E6866A8797F0FFFF28
:10472000E780206D834584FC034694FC3365B60026
:1047300005CE858995E9032544FC8345A50093F5BD
:10474000050891E94C410841D445B775008093852F
:104750007582094609A84C410841D445B7750080C7
:1047600093856582054682960589B640264496441F
:104770000649F259625AD25A425BB25B225C925CA1
:10478000025DF24D616182805D7186C6A2C4A6C2DF
:10479000CAC04EDE52DC56DA5AD85ED662D48008E1
:1047A000BA8A368A32892A8B832B4500032C05006E
:1047B00083A4CB0062858294854911CD4E85B64095
:1047C000264496440649F259625AD25A425BB25B79
:1047D000225C616182800345AB00137505080DE121
:1047E000B7750080938595820546854962858294D8
:1047F00071F503A6CA005285DA85029661F18DA88B
:10480000B77500809385A5820946628582945DF51F
:104810008549130574FC83258B000326CB00930682
:1048200084FB232C84FB232E74FB2320A4FC3775EC
:1048300000801305458003A7CA00A30334FD232489
:10484000D4FC2326A4FC2328B4FC232AC4FC93050F
:1048500084FC528502973DF18325C4FC032584FC2A
:10486000D445B7750080938545820946829639F50F
:10487000631409020345AB001375050811ED832588
:104880004B0003250B00D445B77500809385C58286
:104890000546854982961DF183254B0003250B00B3
:1048A000D445B76500809385056E05468296AA8932
:1048B00031B71D7186CEA2CCA6CACAC8CEC6D2C494
:1048C000D6C2DAC05EDE62DC66DA6AD86ED68010E6
:1048D000AE8A032A4600044283290A01AA8C930562
:1048E0002002268582990549631B0528232E94FA08
:1048F00063830A24232844FB232634FB814B014D88
:10490000330550412324A4FA930D10FA416513098D
:1049100020020505232CA4FA9309C005232A94FB41
:10492000D685014C338ABC003306B04033858C01F8
:1049300083460500138716F8636BB7016389260168
:1049400063873601050C330586016DF16DAA830579
:104950000500330B8D01930C150093F4F50F63D60E
:10496000050603C60C0093F5F401930C250013769D
:10497000F6039306000E63E3D40483C60C00930C85
:1049800035001A0693F6F603558E9306000F63EB77
:10499000D40283C60C00F605AD811A0693F6F60321
:1049A000D58DB364B600930C450037051100639EA6
:1049B000A400B3059A415A8DADF581AA9A05B3E4D6
:1049C000C50021A0B205B364B600130504FCA6859A
:1049D000032684FB97F0FFFFE78040C7034504FCF4
:1049E00093050008630CB50C0345A4FC8345B4FC97
:1049F000898D13F5F50F85456302B50C63637B1B49
:104A0000832544FBDE95638D0B0063F95B01038511
:104A100005001306F0FB6345A60061A263935B19D2
:104A200063040B02637D5B01032544FB6A95629579
:104A300003050500130600FC6358C5009DA203256D
:104A400084FA2A9B631F0B14032504FB032BC50068
:104A500033067D416296832BC4FB5E85029B631007
:104A60000514034504FC93050008631AB50083256B
:104A700044FC5E850326C4FA029611CD0DA283453F
:104A8000A4FC0346B4FC0D8E130504FCAA955E85B8
:104A9000029B631605101305000863F4A400854B00
:104AA00019A813D5B40019E1894B31A013D504011D
:104AB000B33BA0008D0B33058D01AA9B13050008A5
:104AC00063FBA400054B6A9C629BB3059A415A8D17
:104AD000E39905E41DA813D5B40011E9094B6A9CBC
:104AE000629BB3059A415A8DE39D05E239A8C180C6
:104AF000333B90000D0B6A9C629BB3059A415A8D23
:104B0000E39105E219A0330BBD00636A7B0B832C94
:104B100044FB8329C4FA0549032A04FB63820B0280
:104B200063FE5B0133857C01030505009305F0FB03
:104B300063C8A50079A0014B814B15A063935B0965
:104B4000630F0B00637B5B0133856C01030505007C
:104B50009305F0FB63C5A500ADA063145B07832636
:104B6000CA0033067B41B3857C018324C4FB2685C0
:104B7000829611E593052002268582992A894A8525
:104B8000F6406644D6444649B649264A964A064BFC
:104B9000F25B625CD25C425DB25D25618280054958
:104BA000F9BFB3068D0137770080130747910325BE
:104BB00044FBD6855E8697000000E7800026832CA4
:104BC00044FB37770080130747926685D6855E865B
:104BD000DA8697000000E7804024797106D622D457
:104BE00026D24AD04ECE52CC001803AA450003A9C3
:104BF000050083290A01AA84930570024A858299D7
:104C000019C10545B9A08C401305C4FD1306101049
:104C10009304C4FD97F0FFFFE78040A30345C4FD64
:104C2000930500086318B500832504FE4A85829920
:104C300069F921A8834564FE034674FE8326CA00F1
:104C40000D8EA6954A8582964DFD930570024A8584
:104C50008299B250225492540259F249624A4561F3
:104C60008280411106C622C4000897100000E78028
:104C700060B3411106C622C4000897100000E78007
:104C800060B8411106C622C426C200082A860D0556
:104C90007199B307C54063F4F502014581CDB29522
:104CA00083060600050693A606FC93C616003695F5
:104CB000E318B6FEB2402244924441018280B3869A
:104CC000F54093D22600E38A02FCB29793F53600B2
:104CD0006314C500014521A8014503070600050628
:104CE000132707FC134717003A95E318F6FE014611
:104CF00089CDF19ABE9603870600FD15132707FCA0
:104D0000134717003A968506FDF5B7050101B7066A
:104D1000FF003295138F15109388F60F114825A0C8
:104D2000B3875300B3026E409375330033F61F010F
:104D300093D68F00B3F61601369693160601369673
:104D400041823295B5EDE38702F6168EBE83930558
:104D5000000C168363E4B2001303000C93122300CB
:104D6000814FE36F0EFB93F5023FB38EB3009E8736
:104D70009443CC439047D84793C4F6FF99829D80D3
:104D8000C58E93C4F5FF99819D80C58D9344F6FF30
:104D900019829D80458E9344F7FF19839D80458F2E
:104DA000B3F6E601FE96B3F5E5013376E601B37F8F
:104DB000E701B295B695C107AE9FE39BD7FB8DB7D0
:104DC00081451376C30F0A06B29313360E0C3306D1
:104DD000C0403376CE000D8A9316260003A603004A
:104DE00091031347F6FF19821D83598E3376E6012E
:104DF000F116B295E5F633F61501A181B3F515016B
:104E0000B29513960501B295C1812E95B240224408
:104E1000924441018280411106C622C400089700D5
:104E20000000E7808000597186D6A2D4801823281C
:104E3000C4F893071010232AD4F863E1F50283071E
:104E400005101308F0FB6357F80293020010B30734
:104E5000550083870700635BF802A9A88548232CC7
:104E6000A4F8232EB4F8232014FB232204FA63F2BF
:104E7000C506E1A88307F50F6350F8029302F00F0F
:104E8000B3075500838707006346F80201469686FC
:104E900097000000E78060F88307E50F93A707FC01
:104EA00093C717009382D70FB30755008387070076
:104EB000E35EF8FC1548B77800809388F894232CBB
:104EC000A4F8232E54F8232014FB232204FB63EEC2
:104ED000C50663ECD50663F1C60E130504F9B75594
:104EE000008093856560130644F9130884F9B75769
:104EF000008093872778930604FAB7780080938818
:104F000048962328A4FC232AB4FC232CC4FC232E7B
:104F1000B4FC1145232404FC232004FF2322F4FEC7
:104F20002324D4FE2326F4FE930504FD232C14FB36
:104F3000232EA4FA2320B4FC2322A4FC130584FB13
:104F4000BA8597F0FFFFE78000A763E3C5003686C8
:104F50002328C4FA130804FBB758008093886860BC
:104F6000130684F9B756008093862678930704FACF
:104F7000377500801305C59F8D45232404FC232825
:104F800004FD232A14FD232CC4FC232ED4FC23204F
:104F9000F4FE2322D4FE130604FD232CA4FA232EB0
:104FA000B4FA2320C4FC2322B4FC130584FBBA8585
:104FB00097F0FFFFE78020A019CE637EB6002A9607
:104FC000830606009307F0FB130644F963C4D70079
:104FD000130604F914422324D4FA2E8663FAB60287
:104FE0001386D6FFB3B7C600FD1733F8C700938703
:104FF000160063EA071533860741AA96930800FC5A
:1050000019C6838706007D16FD16E3CB17FF42966F
:10501000B306C50001EA6310B6023A8597F0FFFFB8
:10502000E78080976373B602038806009307F0FB5E
:10503000E3C307FF29A88385060013F5F50F63CDA9
:1050400005002326A4FA054561A0E306B6FCAE865A
:1050500097000000E78060DC83C716009375F501B8
:105060001308F00D93F7F703637CA80203C826002A
:10507000939867009377F8031308000FB3E7F800DD
:105080006364050303C53600F6059A07AD81137501
:10509000F5035D8D4D8DB7051100E300B5F801A84E
:1050A000139565005D8D21A01395C5005D8D930559
:1050B00000082326A4FA6374B500054511A893558A
:1050C000B50099E1094529A041813335A0000D05BE
:1050D0003295130884FAB753008093836360130EEC
:1050E000C4FAB75500809385A5BD930804FBB73279
:1050F00000809382425F130384F9B7560080938641
:105100002678930704FA2328C4FA232AA4FA3775C9
:1051100000801305C59B232804FD232A74FC232C3F
:10512000C4FD232EB4FC9545232404FC232014FF46
:10513000232254FE232464FE2326D4FE2328F4FED7
:10514000232AD4FE89BD37760080130646A1428506
:10515000BE8597000000E78000B2411106C622C458
:1051600000088142135385000606B383C500137EF1
:10517000F50F83CE050003C615008905B388C2006C
:10518000639F6E0063ED580663651709B69211CAF6
:1051900083CE020085027D16E39BCEFF99A863654E
:1051A000D301C682E39775FC3E98854503870700C7
:1051B000938617001376F70F63470700B687118DA4
:1051C000635F05000DA06380060783C6170089078B
:1051D0001376F6072206558E118D6346050093C59A
:1051E0001500E39507FD13F51500B2402244410177
:1051F000828013751000B2402244410182803776CC
:1052000000801306C6A51685C68597000000E780B6
:1052100080A6377600801306C6A54685BA85970016
:105220000000E78040A4377500801305C5A497E00F
:10523000FFFFE7806076930500026374B5000145C7
:1052400082809305F0076374B5000545828093550D
:1052500005018DE94205B77500809385A5D7B7761E
:1052600000809386A6DCB77700809387C7EE13068D
:1052700080021307201241811308901217030000C7
:105280006700E3ED935515018DE94205B775008080
:105290009385C5A6B7760080938646ACB777008025
:1052A000938747B91306C0021307000D4181130805
:1052B000601E17030000670083EA411106C622C47E
:1052C00026C2000837082000B7A80200B752FDFF29
:1052D0003733FDFF371FFDFFB703FDFF37FEFCFF30
:1052E000B70EF2FFB70F0E0001189385086E938476
:1052F000028C93020315B3770501B3C8B700930777
:105300000F4113070F80AA9393050ECB93860EF0DF
:1053100013860F1FAA947908AA92AA972A97AA958A
:10532000AA963333C500337505017D761306E6650D
:105330003336C7003727F5FF1307072BB3B6E60050
:1053400037C702001307E781398D13B722FF93B7E0
:1053500017FF7D8F93B5B5FFF58D93B6A4FFB337D7
:105360001001FD8E798E3335A000758D93B6E3A1C3
:10537000758E718DB3F565006D8DB24022449244F7
:1053800041018280011106CE22CC0010AA8537652A
:105390000080130545650546232804FE9146232019
:1053A000A4FE2322C4FE2324D4FE232604FE1305D8
:1053B00004FE97E0FFFFE7800060011106CE22CCDB
:1053C0000010AA8537650080130505680546232867
:1053D00004FE91462320A4FE2322C4FE2324D4FEEF
:1053E000232604FE130504FE97E0FFFFE780A05C80
:1053F000011106CE22CC0010AA8537650080130566
:10540000C56A0546232804FE91462320A4FE2322D4
:10541000C4FE2324D4FE232604FE130504FE97E0D5
:10542000FFFFE7804059011106CE22CC0010AA856B
:10543000376500801305856D0546232804FE9146D7
:105440002320A4FE2322C4FE2324D4FE232604FE0C
:10545000130504FE97E0FFFFE780E055757106C76E
:1054600022C500092E8881470841930574FF29460B
:1054700009A89386760511812380D5008507FD153F
:1054800009CD9376F500E3F6C6FE938606031181F7
:105490002380D5008507FD156DF5130584F71D8D57
:1054A00013070508377600801306D682854589469E
:1054B000428597F0FFFFE780A0C7BA402A444961C0
:1054C0008280757106C722C500092E888147084170
:1054D000930574FF294609A89386760311812380DA
:1054E000D5008507FD1509CD9376F500E3F6C6FED8
:1054F0009386060311812380D5008507FD156DF580
:10550000130584F71D8D13070508377600801306F1
:10551000D68285458946428597F0FFFFE78040C1E6
:10552000BA402A4449618280757106C722C526C3E4
:105530000009AE848C4513966500634C06029605FF
:1055400063C405060841930544F729469700000007
:10555000E780400F2A87AE87854505462685814628
:1055600097F0FFFFE780C0BCBA402A449A444961E3
:10557000828081470841930534FF294609A8938614
:10558000760511812380D5008507FD1521C9937605
:10559000F500E3F6C6FE9386060311812380D5004D
:1055A0008507FD156DF51DA881470841930534FF5A
:1055B000294609A89386760311812380D5008507A3
:1055C000FD1509CD9376F500E3F6C6FE9386060336
:1055D00011812380D5008507FD156DF5130544F76E
:1055E0001D8D13070508377600801306D682854582
:1055F0008946268597F0FFFFE78080B3BA402A44AA
:105600009A4449618280011106CE22CC26CA00103C
:105610000841AE849305A4FE294697000000E78068
:1056200060022A87AE87854505462685814697F024
:10563000FFFFE780E0AFF2406244D2440561828020
:10564000411106C622C426C24AC000089306803E05
:10565000B77800809388F882AA8EB2876377D500E6
:10566000A54663EDD60961EDE9A8930FC6FFB30621
:10567000B600B712B7D109638563130840063797A0
:105680009800F91693829275130303719383B347BD
:10569000130EF767AA8E768FB3BE5E02F11F93DEFC
:1056A000DE0033876E02B307EF401397070149838B
:1056B000330777029354070145833307070393F4B5
:1056C000E47F998FC694C607C183C69703C70400B9
:1056D00083C4140003C9070083C71700238FE6FEA5
:1056E000A38F96FE23802601A380F600F116E364C3
:1056F000EEFB93874F00A546E3F7D6F793960E018E
:105700000568930240063383F500C9829304B847C5
:10571000B3869602C582B3845602B3849E40C60403
:10572000C180C69403C8040083C41400F9173387EA
:10573000F50023000701A30F93FEB68E19C1638DF8
:105740000E00860E13F5EE01469503451500FD1774
:10575000B386F5002380A6001D8E3385F500B28543
:10576000B24022449244024941018280411106C65E
:1057700022C40008504108415C46B2402244410125
:105780008287411106C622C40008144150412E856B
:10579000B685B2402244410117F3FFFF670023C5DD
:1057A000397106DE22DC80002324A4FC2326B4FC0D
:1057B000130584FCB7550080938565609306C4FC8F
:1057C00037770080130787038947232004FE2324AB
:1057D000A4FE2326B4FE2328D4FE232AB4FE1305F8
:1057E00084FE2328E4FC232AF4FC232CA4FC232E8F
:1057F000F4FC130504FDB28597E0FFFFE780A01BD2
:10580000397106DE22DC80002324A4FC2326B4FCAC
:10581000130584FCB7550080938565609306C4FC2E
:10582000377700801307C7068947232004FE232407
:10583000A4FE2326B4FE2328D4FE232AB4FE130597
:1058400084FE2328E4FC232AF4FC232CA4FC232E2E
:10585000F4FC130504FDB28597E0FFFFE780A01577
:10586000411106C622C400084966B77500809385B9
:10587000C5071306F6823336C5007D16458A931692
:105880002600AE9694521317B500AE06B336D70075
:1058900093C616008E06558E93162600AE96944A31
:1058A000AE06B336D70093C616008A06558E9316F9
:1058B0002600AE969446AE06B336D70093C61600C1
:1058C0008606558E93162600AE96D442AE06B336A3
:1058D000D70093C61600369693162600AE96D4428D
:1058E000AE06B336D70093C616003696931626003A
:1058F000AE969442AE06B3C7E600B3B6E60013B761
:1059000017003696329793162700AE968C421306F0
:105910000002D581636AE600D042558201EB93868E
:105920001500631ED6002DA81306F02E83A6C6FF11
:10593000AE0613D7B600938615006303D6028146E0
:10594000198D7D163767008013074734B307B700FA
:1059500083C70700BE966365D5008505E318B6FECC
:1059600013F51500B2402244410182802324A4FE95
:105970002326B4FE2328D4FE930604F8ECDA13059C
:1059800084FE8282411106C622C40008B24022442D
:1059900041011703000067008300011106CE22CCED
:1059A00026CA0010C1466363D606B306A04013F8AA
:1059B0003600B30F0501637DF5014287AA86AE87E5
:1059C00083C807007D1723801601850685076DFBB8
:1059D000B3840501B308064113F7C8FF13F634007A
:1059E000B386EF0031E663FADF0026861C4223A06F
:1059F000FF00910F1106E3EBDFFEB385E40013F621
:105A000038003387C60063E8E60031A8AA8633076A
:105A1000C500637AE50003C705007D162380E60014
:105A2000850685056DFAF2406244D24405618280A4
:105A300001489147232804FEB383C740930204FF23
:105A400013F31300B3E2C2006318030493F72300B7
:105A5000A1EF832E04FF1318360093874F00338F76
:105A6000C44063F4D706B307004113FE87018322C5
:105A70004F0093034F00B3D50E0113834F00B3972C
:105A8000C201DD8D93878F0023A0BF009A8F1E8FE8
:105A9000968EE3EED7FC2DA883C704002380F20086
:105AA000054893F72300D5D7B387040183970700F0
:105AB00016982310F800832E04FF131836009387DE
:105AC0004F00338FC440E3E0D7FAF682FA837E8337
:105AD000230604FE8547230504FE6318F60081476C
