:020000040100F9
:10000000FD62938202400100FD12E39E02FE374131
:10001000000213010100B701000293810100B7152E
:100020000001938505A537160001130606A5B7063E
:1000300000029386060039A083A2050023A0560083
:1000400091059106E3EAC5FEB7150001938545A524
:1000500037160001130646A5B70600029386460030
:1000600039A083A2050023A0560091059106E3EA7A
:10007000C5FEB7050002938505003706000213068A
:10008000460021A023A005009105E3EDC5FEB700C1
:100090000001E780C00AB7000001E780C00AB7008E
:1000A0000001E780C01673005010F5BF8280000089
:1000B0000000000000000000000000000000000040
:1000C0006F004000197106C20AC40EC612C816CAD3
:1000D0001ACC1ECE22D026D22AD42ED632D836DA48
:1000E0003ADC3EDEC2C0C6C2CAC4CEC6D2C8D6CA78
:1000F000DACCDECEE2D0E6D2EAD4EED6F2D8F6DA28
:10010000FADCFEDE970000009380E00482909240CB
:100110002241B2414242D2426243F24302549254DB
:100120002255B2554256D2566257F2570648964863
:100130002649B649464AD64A664BF64B065C965C5B
:10014000265DB65D465ED65E665FF65F096173004A
:10015000203001A001A0B7160001938676865D4687
:100160002E85B6851703000067008351411106C62E
:1001700022C497000000E780A02AB705000203C64A
:100180000500631506263714080005462380C500C0
:1001900097000000E780602937060600484A7199F9
:1001A00048CA084A719908CA484A137535C01305E8
:1001B000052048CA084A1375F5C31305052008CA67
:1001C000544AFD75370505009385F53FED8E54CAF9
:1001D0005451ED9A54D15451F19A54D10320050051
:1001E00023200500032045002322050003204500AD
:1001F00023220500144AED8E14CA232C0600505504
:10020000799A50D5504D91668568558E50CD504D98
:10021000B746080093070008130800043366160168
:1002200050CD1386C600232CF67E232EF67E37167D
:10023000050023A60601832706C075777D177D8FED
:1002400093070002336717012320E6C0DCC683262C
:1002500006C0F58D938505402320B6C04C4D93E52F
:1002600025004CCD0325C440C1756D8D938558D0B4
:100270004D8D2326A440032504401365D50023207B
:10028000A4400325C4412A05E35D05FE130580044F
:100290002324A4420325C4411375050465DD130519
:1002A00050062324A4420325C4411375050465DDCB
:1002B0001305C0062324A4420325C4411375050475
:1002C00065DD1305C0062324A4420325C44113752C
:1002D000050465DD1305F0062324A4420325C4416B
:1002E0001375050465DD1305C0022324A44203250C
:1002F000C4411375050465DD130500022324A442DF
:100300000325C4411375050465DD13057007232417
:10031000A4420325C4411375050465DD1305F006E9
:100320002324A4420325C4411375050465DD130588
:1003300020072324A4420325C4411375050465DD69
:100340001305C0062324A4420325C44113750504E4
:1003500065DD130540062324A4420325C44113751B
:10036000050465DD130510022324A4420325C441BE
:100370001375050465DD29452324A4420325C441E2
:100380001375050465DD214591450946854603271A
:10039000C441058B1DE70327C441098B15E70327DB
:1003A000C441118B0DE70327C441218B05E70327C7
:1003B000C4411377070261DF032744421377F70F25
:1003C00031A8232ED44009A8232EC44031A0232EC7
:1003D000B44019A0232EA440130750042324E44260
:1003E0000327C4411377070465DF55B79700000062
:1003F000E780A003371500011305E587B716000154
:100400009386C68A371700011307C78B9305B0027E
:100410001306710097000000E78000047375043034
:1004200072057D81828009C5214573200530828057
:100430008280011106CE22CC001005462326A4FEA0
:100440002328B4FE231AC4FE1305C4FE970000003F
:10045000E78080D0397106DE22DC80002320A4FCF6
:100460002322B4FC2324C4FC2326D4FC130804FC5C
:10047000B71800019388C883130684FCB7160001DF
:1004800093866682B71700019387078D094523205D
:1004900004FE930584FE232404FF232614FF23284F
:1004A000C4FE232AD4FE2328F4FC232AA4FC232CF4
:1004B000B4FC232EA4FC130504FDBA8597000000AC
:1004C000E78060F7797106D622D426D24AD04ECE84
:1004D00052CC56CA5AC85EC662C466C26AC0001808
:1004E000B289044537060018658E2E89630006140C
:1004F0009395340063C70504C14563FFB90881457E
:10050000638F090033063901CA8603870600850612
:10051000132707FC13471700BA95E398C6FE035646
:10052000C50063F5C510814B330BB640139614001C
:10053000798285469395B40063CEC60659C2DA8B9C
:1005400049A08355E500E1CDB30639019308000EBB
:100550001308000F2E86CA87814911A81387170038
:10056000B38737417D16B309F740BA875DCA638AFE
:10057000D70A03870700E35307FE1377F70F636774
:1005800017016368070113874700D9BF1387270046
:10059000C1BF13873700E9B72A8A4A85CE859700FD
:1005A0000000E780400FAA8552850356CA0063FF0A
:1005B000C50695BF89466316D60013160B01935BDB
:1005C0001601814413DAB500832A0500032C450087
:1005D000C16CFD1C33FD9B0133F59401637AA501C9
:1005E00003260C0185045685D285029675D501A88F
:1005F0008326CC005685CA854E86829639C9054920
:100600004A85B250225492540259F249624AD24A5F
:10061000424BB24B224C924C024D45618280814943
:100620000146918D0356C500E3EFC5EE4C410841EC
:10063000DC45CA854E86B250225492540259F24982
:10064000624AD24A424BB24B224C924C024D456117
:100650008287814433057B41C169FD19337B3501B4
:1006600033F5340133396501E37C65F903260C0168
:1006700085045685D285029665D559B7411106C6BF
:1006800022C4000854410841DC46B24022444101E2
:100690008287411106C622C426C200082A860D059B
:1006A0007199B307C54063F4F502014581CDB29558
:1006B00083060600050693A606FC93C6160036952B
:1006C000E318B6FEB2402244924441018280B386D0
:1006D000F54093D22600E38A02FCB29793F53600E8
:1006E0006314C500014521A801450307060005065E
:1006F000132707FC134717003A95E318F6FE014647
:1007000089CDF19ABE9603870600FD15132707FCD5
:10071000134717003A968506FDF5B7050101B706A0
:10072000FF003295138F15109388F60F114825A0FE
:10073000B3875300B3026E409375330033F61F0145
:1007400093D68F00B3F616013696931606013696A9
:1007500041823295B5EDE38702F6168EBE8393058E
:10076000000C168363E4B2001303000C9312230001
:10077000814FE36F0EFB93F5023FB38EB3009E876C
:100780009443CC439047D84793C4F6FF99829D8009
:10079000C58E93C4F5FF99819D80C58D9344F6FF66
:1007A00019829D80458E9344F7FF19839D80458F64
:1007B000B3F6E601FE96B3F5E5013376E601B37FC5
:1007C000E701B295B695C107AE9FE39BD7FB8DB706
:1007D00081451376C30F0A06B29313360E0C330607
:1007E000C0403376CE000D8A9316260003A6030080
:1007F00091031347F6FF19821D83598E3376E60164
:10080000F116B295E5F633F61501A181B3F51501A0
:10081000B29513960501B295C1812E95B24022443E
:10082000924441018280411106C622C40008504111
:1008300008415C46B240224441018287411106C60C
:1008400022C40008144150412E85B685B24022448E
:0C085000410117030000670023C70000EF
:10085C007372632F6D61696E2E727350657269705D
:10086C00686572616C73416C726561647954616B1B
:10087C00656E63616C6C65642060526573756C7435
:10088C003A3A756E77726170282960206F6E20611C
:10089C006E2060457272602076616C756500000098
:1008AC0000000000000000000100000056010001E3
:1008BC005C0800010B000000340000002100000067
:1008CC003A2000000100000000000000CC080001EC
:0408DC000200000016
:1008E0001000000000000000017A5200017C0101AC
:1008F0001B0C02001C0000001800000036FBFFFF6C
:100900002200000000420E204481018802420C08AF
:10091000000000001C0000003800000038FBFFFF52
:100920007000000000420E404481018802420C0821
:1009300000000000600000005800000088FBFFFF7E
:10094000B801000000420E305881018802890392EC
:100950000493059406950796089709980A990B9AA7
:100960000C420C08000A0322010C023058C1C8C90D
:10097000D2D3D4D5D6D7D8D9DA420E00420B0A58F2
:100980000C023058C1C8C9D2D3D4D5D6D7D8D9DAF9
:10099000420E00420B00000024000000BC000000DA
:1009A000DCFCFFFF1600000000420E1044810188AD
:1009B00002420C0800460C021044C1C8420E00005E
:1009C00038000000E4000000CAFCFFFF94010000B2
:1009D00000420E1046810188028903420C08000A79
:1009E000680C021046C1C8C9420E00420B034E01FA
:1009F0000C021046C1C8C9420E00000024000000CD
:100A00002001000022FEFFFF1600000000420E1031
:100A10004481018802420C0800460C021044C1C8FF
:100A2000420E0000240000004801000010FEFFFFFD
:100A30001E00000000420E104481018802420C0892
:100A400000480C021044C1C8420E00000000000023
:00000001FF
